{
  "contractName": "ImmutablePosts",
  "abi": [
    {
      "anonymous": false,
      "inputs": [
        {
          "indexed": true,
          "internalType": "address",
          "name": "previousOwner",
          "type": "address"
        },
        {
          "indexed": true,
          "internalType": "address",
          "name": "newOwner",
          "type": "address"
        }
      ],
      "name": "OwnershipTransferred",
      "type": "event"
    },
    {
      "anonymous": false,
      "inputs": [
        {
          "indexed": false,
          "internalType": "uint256",
          "name": "idauthor",
          "type": "uint256"
        },
        {
          "indexed": false,
          "internalType": "string",
          "name": "name",
          "type": "string"
        },
        {
          "indexed": false,
          "internalType": "string",
          "name": "bio",
          "type": "string"
        },
        {
          "indexed": false,
          "internalType": "string",
          "name": "link",
          "type": "string"
        },
        {
          "indexed": false,
          "internalType": "address",
          "name": "authoraddress",
          "type": "address"
        }
      ],
      "name": "newAuthor",
      "type": "event"
    },
    {
      "anonymous": false,
      "inputs": [
        {
          "indexed": false,
          "internalType": "uint256",
          "name": "id",
          "type": "uint256"
        },
        {
          "indexed": false,
          "internalType": "string",
          "name": "categoryname",
          "type": "string"
        }
      ],
      "name": "newCategory",
      "type": "event"
    },
    {
      "anonymous": false,
      "inputs": [
        {
          "indexed": false,
          "internalType": "uint256",
          "name": "id",
          "type": "uint256"
        },
        {
          "indexed": false,
          "internalType": "string",
          "name": "title",
          "type": "string"
        },
        {
          "indexed": false,
          "internalType": "string",
          "name": "description",
          "type": "string"
        },
        {
          "indexed": false,
          "internalType": "string",
          "name": "category",
          "type": "string"
        }
      ],
      "name": "newPost",
      "type": "event"
    },
    {
      "constant": true,
      "inputs": [
        {
          "internalType": "uint256",
          "name": "",
          "type": "uint256"
        }
      ],
      "name": "authorToOwner",
      "outputs": [
        {
          "internalType": "address",
          "name": "",
          "type": "address"
        }
      ],
      "payable": false,
      "stateMutability": "view",
      "type": "function"
    },
    {
      "constant": true,
      "inputs": [
        {
          "internalType": "uint256",
          "name": "",
          "type": "uint256"
        }
      ],
      "name": "authors",
      "outputs": [
        {
          "internalType": "string",
          "name": "name",
          "type": "string"
        },
        {
          "internalType": "string",
          "name": "bio",
          "type": "string"
        },
        {
          "internalType": "string",
          "name": "link",
          "type": "string"
        },
        {
          "internalType": "address",
          "name": "authoraddress",
          "type": "address"
        }
      ],
      "payable": false,
      "stateMutability": "view",
      "type": "function"
    },
    {
      "constant": true,
      "inputs": [
        {
          "internalType": "uint256",
          "name": "",
          "type": "uint256"
        }
      ],
      "name": "categories",
      "outputs": [
        {
          "internalType": "string",
          "name": "name",
          "type": "string"
        }
      ],
      "payable": false,
      "stateMutability": "view",
      "type": "function"
    },
    {
      "constant": true,
      "inputs": [],
      "name": "isOwner",
      "outputs": [
        {
          "internalType": "bool",
          "name": "",
          "type": "bool"
        }
      ],
      "payable": false,
      "stateMutability": "view",
      "type": "function"
    },
    {
      "constant": true,
      "inputs": [],
      "name": "owner",
      "outputs": [
        {
          "internalType": "address",
          "name": "",
          "type": "address"
        }
      ],
      "payable": false,
      "stateMutability": "view",
      "type": "function"
    },
    {
      "constant": true,
      "inputs": [
        {
          "internalType": "address",
          "name": "",
          "type": "address"
        }
      ],
      "name": "ownerAuthorCount",
      "outputs": [
        {
          "internalType": "uint256",
          "name": "",
          "type": "uint256"
        }
      ],
      "payable": false,
      "stateMutability": "view",
      "type": "function"
    },
    {
      "constant": true,
      "inputs": [
        {
          "internalType": "address",
          "name": "",
          "type": "address"
        }
      ],
      "name": "ownerToAuthor",
      "outputs": [
        {
          "internalType": "uint256",
          "name": "",
          "type": "uint256"
        }
      ],
      "payable": false,
      "stateMutability": "view",
      "type": "function"
    },
    {
      "constant": true,
      "inputs": [
        {
          "internalType": "uint256",
          "name": "",
          "type": "uint256"
        }
      ],
      "name": "postToOwner",
      "outputs": [
        {
          "internalType": "address",
          "name": "",
          "type": "address"
        }
      ],
      "payable": false,
      "stateMutability": "view",
      "type": "function"
    },
    {
      "constant": true,
      "inputs": [
        {
          "internalType": "uint256",
          "name": "",
          "type": "uint256"
        }
      ],
      "name": "posts",
      "outputs": [
        {
          "internalType": "string",
          "name": "title",
          "type": "string"
        },
        {
          "internalType": "string",
          "name": "description",
          "type": "string"
        },
        {
          "internalType": "string",
          "name": "category",
          "type": "string"
        },
        {
          "internalType": "address",
          "name": "authorpost",
          "type": "address"
        }
      ],
      "payable": false,
      "stateMutability": "view",
      "type": "function"
    },
    {
      "constant": false,
      "inputs": [],
      "name": "renounceOwnership",
      "outputs": [],
      "payable": false,
      "stateMutability": "nonpayable",
      "type": "function"
    },
    {
      "constant": false,
      "inputs": [
        {
          "internalType": "address",
          "name": "newOwner",
          "type": "address"
        }
      ],
      "name": "transferOwnership",
      "outputs": [],
      "payable": false,
      "stateMutability": "nonpayable",
      "type": "function"
    },
    {
      "constant": false,
      "inputs": [
        {
          "internalType": "string",
          "name": "_name",
          "type": "string"
        },
        {
          "internalType": "string",
          "name": "_bio",
          "type": "string"
        },
        {
          "internalType": "string",
          "name": "_link",
          "type": "string"
        }
      ],
      "name": "createAuthor",
      "outputs": [],
      "payable": false,
      "stateMutability": "nonpayable",
      "type": "function"
    },
    {
      "constant": true,
      "inputs": [
        {
          "internalType": "address",
          "name": "_owner",
          "type": "address"
        }
      ],
      "name": "getAuthorbyAccount",
      "outputs": [
        {
          "internalType": "uint256[]",
          "name": "",
          "type": "uint256[]"
        }
      ],
      "payable": false,
      "stateMutability": "view",
      "type": "function"
    },
    {
      "constant": true,
      "inputs": [
        {
          "internalType": "uint256",
          "name": "pos",
          "type": "uint256"
        }
      ],
      "name": "getAuthorbyId",
      "outputs": [
        {
          "internalType": "string",
          "name": "name",
          "type": "string"
        },
        {
          "internalType": "string",
          "name": "bio",
          "type": "string"
        },
        {
          "internalType": "string",
          "name": "link",
          "type": "string"
        },
        {
          "internalType": "address",
          "name": "authoraddress",
          "type": "address"
        }
      ],
      "payable": false,
      "stateMutability": "view",
      "type": "function"
    },
    {
      "constant": false,
      "inputs": [
        {
          "internalType": "string",
          "name": "_title",
          "type": "string"
        },
        {
          "internalType": "string",
          "name": "_description",
          "type": "string"
        },
        {
          "internalType": "string",
          "name": "_category",
          "type": "string"
        },
        {
          "internalType": "address payable",
          "name": "_pluginbeneficiary",
          "type": "address"
        }
      ],
      "name": "createPostandPay",
      "outputs": [],
      "payable": true,
      "stateMutability": "payable",
      "type": "function"
    },
    {
      "constant": false,
      "inputs": [
        {
          "internalType": "uint256",
          "name": "_fullfee",
          "type": "uint256"
        },
        {
          "internalType": "address payable",
          "name": "_pluginbeneficiary",
          "type": "address"
        }
      ],
      "name": "payAndSplitFee",
      "outputs": [],
      "payable": true,
      "stateMutability": "payable",
      "type": "function"
    },
    {
      "constant": false,
      "inputs": [
        {
          "internalType": "string",
          "name": "_categoryname",
          "type": "string"
        }
      ],
      "name": "createCategory",
      "outputs": [],
      "payable": false,
      "stateMutability": "nonpayable",
      "type": "function"
    },
    {
      "constant": true,
      "inputs": [
        {
          "internalType": "address",
          "name": "_owner",
          "type": "address"
        }
      ],
      "name": "getPostbyAccount",
      "outputs": [
        {
          "internalType": "uint256[]",
          "name": "",
          "type": "uint256[]"
        }
      ],
      "payable": false,
      "stateMutability": "view",
      "type": "function"
    },
    {
      "constant": true,
      "inputs": [],
      "name": "getNbArticles",
      "outputs": [
        {
          "internalType": "uint256",
          "name": "_nbarticle",
          "type": "uint256"
        }
      ],
      "payable": false,
      "stateMutability": "view",
      "type": "function"
    },
    {
      "constant": true,
      "inputs": [
        {
          "internalType": "uint256",
          "name": "pos",
          "type": "uint256"
        }
      ],
      "name": "getPostbyId",
      "outputs": [
        {
          "internalType": "string",
          "name": "title",
          "type": "string"
        },
        {
          "internalType": "string",
          "name": "description",
          "type": "string"
        },
        {
          "internalType": "string",
          "name": "category",
          "type": "string"
        },
        {
          "internalType": "address",
          "name": "authorpost",
          "type": "address"
        }
      ],
      "payable": false,
      "stateMutability": "view",
      "type": "function"
    },
    {
      "constant": false,
      "inputs": [
        {
          "internalType": "uint256",
          "name": "_fee",
          "type": "uint256"
        }
      ],
      "name": "setFee",
      "outputs": [],
      "payable": false,
      "stateMutability": "nonpayable",
      "type": "function"
    },
    {
      "constant": true,
      "inputs": [],
      "name": "getFee",
      "outputs": [
        {
          "internalType": "uint256",
          "name": "",
          "type": "uint256"
        }
      ],
      "payable": false,
      "stateMutability": "view",
      "type": "function"
    },
    {
      "constant": false,
      "inputs": [
        {
          "internalType": "uint256",
          "name": "_percent",
          "type": "uint256"
        }
      ],
      "name": "setPercentage",
      "outputs": [],
      "payable": false,
      "stateMutability": "nonpayable",
      "type": "function"
    },
    {
      "constant": false,
      "inputs": [
        {
          "internalType": "address payable",
          "name": "_ourwallet",
          "type": "address"
        }
      ],
      "name": "setUpOurWallerAddress",
      "outputs": [],
      "payable": false,
      "stateMutability": "nonpayable",
      "type": "function"
    }
  ],
  "bytecode": "0x60806040526000600155736711be7371c275f62ee7f69e4cb7c09aced852cc600260006101000a81548173ffffffffffffffffffffffffffffffffffffffff021916908373ffffffffffffffffffffffffffffffffffffffff160217905550670135cbf0206a0000600d556005600e55600061007f61012260201b60201c565b9050806000806101000a81548173ffffffffffffffffffffffffffffffffffffffff021916908373ffffffffffffffffffffffffffffffffffffffff1602179055508073ffffffffffffffffffffffffffffffffffffffff16600073ffffffffffffffffffffffffffffffffffffffff167f8be0079c531659141344cd1fd0a4f28419497f9722a3daafe3b4186f6b6457e060405160405180910390a35061012a565b600033905090565b612f68806101396000396000f3fe60806040526004361061014b5760003560e01c80637e0d2e1e116100b6578063c6cdbe5e1161006f578063c6cdbe5e1461103e578063cb02077d146110f2578063cbe8ad211461116d578063ced72f87146111e8578063dc29868214611213578063f2fde38b146112db5761014b565b80637e0d2e1e14610d0457806381eb8ac414610d695780638da5cb5b14610dce5780638f32d59b14610e25578063945979dc14610e545780639d677b0a14610e7f5761014b565b80635231444b116101085780635231444b146108745780635da4a1d314610a6a57806365641ec314610aa557806369fe0e2d14610af3578063715018a614610b2e5780637b798ac214610b455761014b565b80630b1e7f83146101505780630b89be071461030f57806310997876146105185780632b071d97146105be5780633b9506611461060f5780633db804da146106b5575b600080fd5b34801561015c57600080fd5b506101896004803603602081101561017357600080fd5b810190808035906020019092919050505061132c565b604051808060200180602001806020018573ffffffffffffffffffffffffffffffffffffffff1673ffffffffffffffffffffffffffffffffffffffff168152602001848103845288818151815260200191508051906020019080838360005b838110156102035780820151818401526020810190506101e8565b50505050905090810190601f1680156102305780820380516001836020036101000a031916815260200191505b50848103835287818151815260200191508051906020019080838360005b8381101561026957808201518184015260208101905061024e565b50505050905090810190601f1680156102965780820380516001836020036101000a031916815260200191505b50848103825286818151815260200191508051906020019080838360005b838110156102cf5780820151818401526020810190506102b4565b50505050905090810190601f1680156102fc5780820380516001836020036101000a031916815260200191505b5097505050505050505060405180910390f35b6105166004803603608081101561032557600080fd5b810190808035906020019064010000000081111561034257600080fd5b82018360208201111561035457600080fd5b8035906020019184600183028401116401000000008311171561037657600080fd5b91908080601f016020809104026020016040519081016040528093929190818152602001838380828437600081840152601f19601f820116905080830192505050505050509192919290803590602001906401000000008111156103d957600080fd5b8201836020820111156103eb57600080fd5b8035906020019184600183028401116401000000008311171561040d57600080fd5b91908080601f016020809104026020016040519081016040528093929190818152602001838380828437600081840152601f19601f8201169050808301925050505050505091929192908035906020019064010000000081111561047057600080fd5b82018360208201111561048257600080fd5b803590602001918460018302840111640100000000831117156104a457600080fd5b91908080601f016020809104026020016040519081016040528093929190818152602001838380828437600081840152601f19601f820116905080830192505050505050509192919290803573ffffffffffffffffffffffffffffffffffffffff169060200190929190505050611551565b005b34801561052457600080fd5b506105676004803603602081101561053b57600080fd5b81019080803573ffffffffffffffffffffffffffffffffffffffff1690602001909291905050506118f2565b6040518080602001828103825283818151815260200191508051906020019060200280838360005b838110156105aa57808201518184015260208101905061058f565b505050509050019250505060405180910390f35b3480156105ca57600080fd5b5061060d600480360360208110156105e157600080fd5b81019080803573ffffffffffffffffffffffffffffffffffffffff169060200190929190505050611a1f565b005b34801561061b57600080fd5b5061065e6004803603602081101561063257600080fd5b81019080803573ffffffffffffffffffffffffffffffffffffffff169060200190929190505050611add565b6040518080602001828103825283818151815260200191508051906020019060200280838360005b838110156106a1578082015181840152602081019050610686565b505050509050019250505060405180910390f35b3480156106c157600080fd5b506106ee600480360360208110156106d857600080fd5b8101908080359060200190929190505050611c0a565b604051808060200180602001806020018573ffffffffffffffffffffffffffffffffffffffff1673ffffffffffffffffffffffffffffffffffffffff168152602001848103845288818151815260200191508051906020019080838360005b8381101561076857808201518184015260208101905061074d565b50505050905090810190601f1680156107955780820380516001836020036101000a031916815260200191505b50848103835287818151815260200191508051906020019080838360005b838110156107ce5780820151818401526020810190506107b3565b50505050905090810190601f1680156107fb5780820380516001836020036101000a031916815260200191505b50848103825286818151815260200191508051906020019080838360005b83811015610834578082015181840152602081019050610819565b50505050905090810190601f1680156108615780820380516001836020036101000a031916815260200191505b5097505050505050505060405180910390f35b34801561088057600080fd5b50610a686004803603606081101561089757600080fd5b81019080803590602001906401000000008111156108b457600080fd5b8201836020820111156108c657600080fd5b803590602001918460018302840111640100000000831117156108e857600080fd5b91908080601f016020809104026020016040519081016040528093929190818152602001838380828437600081840152601f19601f8201169050808301925050505050505091929192908035906020019064010000000081111561094b57600080fd5b82018360208201111561095d57600080fd5b8035906020019184600183028401116401000000008311171561097f57600080fd5b91908080601f016020809104026020016040519081016040528093929190818152602001838380828437600081840152601f19601f820116905080830192505050505050509192919290803590602001906401000000008111156109e257600080fd5b8201836020820111156109f457600080fd5b80359060200191846001830284011164010000000083111715610a1657600080fd5b91908080601f016020809104026020016040519081016040528093929190818152602001838380828437600081840152601f19601f820116905080830192505050505050509192919290505050611e2f565b005b348015610a7657600080fd5b50610aa360048036036020811015610a8d57600080fd5b81019080803590602001909291905050506121de565b005b610af160048036036040811015610abb57600080fd5b8101908080359060200190929190803573ffffffffffffffffffffffffffffffffffffffff169060200190929190505050612265565b005b348015610aff57600080fd5b50610b2c60048036036020811015610b1657600080fd5b8101908080359060200190929190505050612335565b005b348015610b3a57600080fd5b50610b436123c6565b005b348015610b5157600080fd5b50610b7e60048036036020811015610b6857600080fd5b81019080803590602001909291905050506124ff565b604051808060200180602001806020018573ffffffffffffffffffffffffffffffffffffffff1673ffffffffffffffffffffffffffffffffffffffff168152602001848103845288818151815260200191508051906020019080838360005b83811015610bf8578082015181840152602081019050610bdd565b50505050905090810190601f168015610c255780820380516001836020036101000a031916815260200191505b50848103835287818151815260200191508051906020019080838360005b83811015610c5e578082015181840152602081019050610c43565b50505050905090810190601f168015610c8b5780820380516001836020036101000a031916815260200191505b50848103825286818151815260200191508051906020019080838360005b83811015610cc4578082015181840152602081019050610ca9565b50505050905090810190601f168015610cf15780820380516001836020036101000a031916815260200191505b5097505050505050505060405180910390f35b348015610d1057600080fd5b50610d5360048036036020811015610d2757600080fd5b81019080803573ffffffffffffffffffffffffffffffffffffffff169060200190929190505050612739565b6040518082815260200191505060405180910390f35b348015610d7557600080fd5b50610db860048036036020811015610d8c57600080fd5b81019080803573ffffffffffffffffffffffffffffffffffffffff169060200190929190505050612751565b6040518082815260200191505060405180910390f35b348015610dda57600080fd5b50610de3612769565b604051808273ffffffffffffffffffffffffffffffffffffffff1673ffffffffffffffffffffffffffffffffffffffff16815260200191505060405180910390f35b348015610e3157600080fd5b50610e3a612792565b604051808215151515815260200191505060405180910390f35b348015610e6057600080fd5b50610e696127f0565b6040518082815260200191505060405180910390f35b348015610e8b57600080fd5b50610eb860048036036020811015610ea257600080fd5b8101908080359060200190929190505050612827565b604051808060200180602001806020018573ffffffffffffffffffffffffffffffffffffffff1673ffffffffffffffffffffffffffffffffffffffff168152602001848103845288818151815260200191508051906020019080838360005b83811015610f32578082015181840152602081019050610f17565b50505050905090810190601f168015610f5f5780820380516001836020036101000a031916815260200191505b50848103835287818151815260200191508051906020019080838360005b83811015610f98578082015181840152602081019050610f7d565b50505050905090810190601f168015610fc55780820380516001836020036101000a031916815260200191505b50848103825286818151815260200191508051906020019080838360005b83811015610ffe578082015181840152602081019050610fe3565b50505050905090810190601f16801561102b5780820380516001836020036101000a031916815260200191505b5097505050505050505060405180910390f35b34801561104a57600080fd5b506110776004803603602081101561106157600080fd5b8101908080359060200190929190505050612a61565b6040518080602001828103825283818151815260200191508051906020019080838360005b838110156110b757808201518184015260208101905061109c565b50505050905090810190601f1680156110e45780820380516001836020036101000a031916815260200191505b509250505060405180910390f35b3480156110fe57600080fd5b5061112b6004803603602081101561111557600080fd5b8101908080359060200190929190505050612b20565b604051808273ffffffffffffffffffffffffffffffffffffffff1673ffffffffffffffffffffffffffffffffffffffff16815260200191505060405180910390f35b34801561117957600080fd5b506111a66004803603602081101561119057600080fd5b8101908080359060200190929190505050612b53565b604051808273ffffffffffffffffffffffffffffffffffffffff1673ffffffffffffffffffffffffffffffffffffffff16815260200191505060405180910390f35b3480156111f457600080fd5b506111fd612b86565b6040518082815260200191505060405180910390f35b34801561121f57600080fd5b506112d96004803603602081101561123657600080fd5b810190808035906020019064010000000081111561125357600080fd5b82018360208201111561126557600080fd5b8035906020019184600183028401116401000000008311171561128757600080fd5b91908080601f016020809104026020016040519081016040528093929190818152602001838380828437600081840152601f19601f820116905080830192505050505050509192919290505050612b90565b005b3480156112e757600080fd5b5061132a600480360360208110156112fe57600080fd5b81019080803573ffffffffffffffffffffffffffffffffffffffff169060200190929190505050612c96565b005b600a818154811061133957fe5b9060005260206000209060040201600091509050806000018054600181600116156101000203166002900480601f0160208091040260200160405190810160405280929190818152602001828054600181600116156101000203166002900480156113e55780601f106113ba576101008083540402835291602001916113e5565b820191906000526020600020905b8154815290600101906020018083116113c857829003601f168201915b505050505090806001018054600181600116156101000203166002900480601f0160208091040260200160405190810160405280929190818152602001828054600181600116156101000203166002900480156114835780601f1061145857610100808354040283529160200191611483565b820191906000526020600020905b81548152906001019060200180831161146657829003601f168201915b505050505090806002018054600181600116156101000203166002900480601f0160208091040260200160405190810160405280929190818152602001828054600181600116156101000203166002900480156115215780601f106114f657610100808354040283529160200191611521565b820191906000526020600020905b81548152906001019060200180831161150457829003601f168201915b5050505050908060030160009054906101000a900473ffffffffffffffffffffffffffffffffffffffff16905084565b600d54341461155f57600080fd5b60006001600a60405180608001604052808881526020018781526020018681526020013373ffffffffffffffffffffffffffffffffffffffff168152509080600181540180825580915050906001820390600052602060002090600402016000909192909190915060008201518160000190805190602001906115e3929190612e68565b506020820151816001019080519060200190611600929190612e68565b50604082015181600201908051906020019061161d929190612e68565b5060608201518160030160006101000a81548173ffffffffffffffffffffffffffffffffffffffff021916908373ffffffffffffffffffffffffffffffffffffffff1602179055505050039050336003600083815260200190815260200160002060006101000a81548173ffffffffffffffffffffffffffffffffffffffff021916908373ffffffffffffffffffffffffffffffffffffffff16021790555080600460003373ffffffffffffffffffffffffffffffffffffffff1673ffffffffffffffffffffffffffffffffffffffff16815260200190815260200160002081905550600560003373ffffffffffffffffffffffffffffffffffffffff1673ffffffffffffffffffffffffffffffffffffffff168152602001908152602001600020600081548092919060010191905055507fe11e7a2b84ce91d77d6e22703b19b4218d69af20d7a8418ba6d728b323dd1b1a8186868660405180858152602001806020018060200180602001848103845287818151815260200191508051906020019080838360005b838110156117c25780820151818401526020810190506117a7565b50505050905090810190601f1680156117ef5780820380516001836020036101000a031916815260200191505b50848103835286818151815260200191508051906020019080838360005b8381101561182857808201518184015260208101905061180d565b50505050905090810190601f1680156118555780820380516001836020036101000a031916815260200191505b50848103825285818151815260200191508051906020019080838360005b8381101561188e578082015181840152602081019050611873565b50505050905090810190601f1680156118bb5780820380516001836020036101000a031916815260200191505b5097505050505050505060405180910390a16001600081548092919060010191905055506118eb600d5483612265565b5050505050565b606080600560008473ffffffffffffffffffffffffffffffffffffffff1673ffffffffffffffffffffffffffffffffffffffff168152602001908152602001600020546040519080825280602002602001820160405280156119635781602001602082028038833980820191505090505b509050600080905060008090505b600a80549050811015611a14578473ffffffffffffffffffffffffffffffffffffffff166003600083815260200190815260200160002060009054906101000a900473ffffffffffffffffffffffffffffffffffffffff1673ffffffffffffffffffffffffffffffffffffffff161415611a0757808383815181106119f257fe5b60200260200101818152505081806001019250505b8080600101915050611971565b508192505050919050565b611a27612792565b611a99576040517f08c379a00000000000000000000000000000000000000000000000000000000081526004018080602001828103825260208152602001807f4f776e61626c653a2063616c6c6572206973206e6f7420746865206f776e657281525060200191505060405180910390fd5b80600260006101000a81548173ffffffffffffffffffffffffffffffffffffffff021916908373ffffffffffffffffffffffffffffffffffffffff16021790555050565b606080600760008473ffffffffffffffffffffffffffffffffffffffff1673ffffffffffffffffffffffffffffffffffffffff16815260200190815260200160002054604051908082528060200260200182016040528015611b4e5781602001602082028038833980820191505090505b509050600080905060008090505b600c80549050811015611bff578473ffffffffffffffffffffffffffffffffffffffff166008600083815260200190815260200160002060009054906101000a900473ffffffffffffffffffffffffffffffffffffffff1673ffffffffffffffffffffffffffffffffffffffff161415611bf25780838381518110611bdd57fe5b60200260200101818152505081806001019250505b8080600101915050611b5c565b508192505050919050565b600c8181548110611c1757fe5b9060005260206000209060040201600091509050806000018054600181600116156101000203166002900480601f016020809104026020016040519081016040528092919081815260200182805460018160011615610100020316600290048015611cc35780601f10611c9857610100808354040283529160200191611cc3565b820191906000526020600020905b815481529060010190602001808311611ca657829003601f168201915b505050505090806001018054600181600116156101000203166002900480601f016020809104026020016040519081016040528092919081815260200182805460018160011615610100020316600290048015611d615780601f10611d3657610100808354040283529160200191611d61565b820191906000526020600020905b815481529060010190602001808311611d4457829003601f168201915b505050505090806002018054600181600116156101000203166002900480601f016020809104026020016040519081016040528092919081815260200182805460018160011615610100020316600290048015611dff5780601f10611dd457610100808354040283529160200191611dff565b820191906000526020600020905b815481529060010190602001808311611de257829003601f168201915b5050505050908060030160009054906101000a900473ffffffffffffffffffffffffffffffffffffffff16905084565b600c60405180608001604052808581526020018481526020018381526020013373ffffffffffffffffffffffffffffffffffffffff16815250908060018154018082558091505090600182039060005260206000209060040201600090919290919091506000820151816000019080519060200190611eaf929190612e68565b506020820151816001019080519060200190611ecc929190612e68565b506040820151816002019080519060200190611ee9929190612e68565b5060608201518160030160006101000a81548173ffffffffffffffffffffffffffffffffffffffff021916908373ffffffffffffffffffffffffffffffffffffffff16021790555050505060006001600c80549050039050336008600083815260200190815260200160002060006101000a81548173ffffffffffffffffffffffffffffffffffffffff021916908373ffffffffffffffffffffffffffffffffffffffff16021790555080600660003373ffffffffffffffffffffffffffffffffffffffff1673ffffffffffffffffffffffffffffffffffffffff16815260200190815260200160002081905550600760003373ffffffffffffffffffffffffffffffffffffffff1673ffffffffffffffffffffffffffffffffffffffff168152602001908152602001600020600081548092919060010191905055507f3c0bdd714683cfc68ce0a5a1ab63a2977cf6fe8f84be337ab2e070c04d2496008185858533604051808681526020018060200180602001806020018573ffffffffffffffffffffffffffffffffffffffff1673ffffffffffffffffffffffffffffffffffffffff168152602001848103845288818151815260200191508051906020019080838360005b838110156120cc5780820151818401526020810190506120b1565b50505050905090810190601f1680156120f95780820380516001836020036101000a031916815260200191505b50848103835287818151815260200191508051906020019080838360005b83811015612132578082015181840152602081019050612117565b50505050905090810190601f16801561215f5780820380516001836020036101000a031916815260200191505b50848103825286818151815260200191508051906020019080838360005b8381101561219857808201518184015260208101905061217d565b50505050905090810190601f1680156121c55780820380516001836020036101000a031916815260200191505b509850505050505050505060405180910390a150505050565b6121e6612792565b612258576040517f08c379a00000000000000000000000000000000000000000000000000000000081526004018080602001828103825260208152602001807f4f776e61626c653a2063616c6c6572206973206e6f7420746865206f776e657281525060200191505060405180910390fd5b80905080600e8190555050565b60006064600e5484028161227557fe5b0490508173ffffffffffffffffffffffffffffffffffffffff166108fc829081150290604051600060405180830381858888f193505050501580156122be573d6000803e3d6000fd5b5060008184039050600260009054906101000a900473ffffffffffffffffffffffffffffffffffffffff1673ffffffffffffffffffffffffffffffffffffffff166108fc829081150290604051600060405180830381858888f1935050505015801561232e573d6000803e3d6000fd5b5050505050565b61233d612792565b6123af576040517f08c379a00000000000000000000000000000000000000000000000000000000081526004018080602001828103825260208152602001807f4f776e61626c653a2063616c6c6572206973206e6f7420746865206f776e657281525060200191505060405180910390fd5b670de0b6b3a76400008102905080600d8190555050565b6123ce612792565b612440576040517f08c379a00000000000000000000000000000000000000000000000000000000081526004018080602001828103825260208152602001807f4f776e61626c653a2063616c6c6572206973206e6f7420746865206f776e657281525060200191505060405180910390fd5b600073ffffffffffffffffffffffffffffffffffffffff166000809054906101000a900473ffffffffffffffffffffffffffffffffffffffff1673ffffffffffffffffffffffffffffffffffffffff167f8be0079c531659141344cd1fd0a4f28419497f9722a3daafe3b4186f6b6457e060405160405180910390a360008060006101000a81548173ffffffffffffffffffffffffffffffffffffffff021916908373ffffffffffffffffffffffffffffffffffffffff160217905550565b6060806060600080600c868154811061251457fe5b906000526020600020906004020190508060000181600101826002018360030160009054906101000a900473ffffffffffffffffffffffffffffffffffffffff16838054600181600116156101000203166002900480601f0160208091040260200160405190810160405280929190818152602001828054600181600116156101000203166002900480156125ea5780601f106125bf576101008083540402835291602001916125ea565b820191906000526020600020905b8154815290600101906020018083116125cd57829003601f168201915b50505050509350828054600181600116156101000203166002900480601f0160208091040260200160405190810160405280929190818152602001828054600181600116156101000203166002900480156126865780601f1061265b57610100808354040283529160200191612686565b820191906000526020600020905b81548152906001019060200180831161266957829003601f168201915b50505050509250818054600181600116156101000203166002900480601f0160208091040260200160405190810160405280929190818152602001828054600181600116156101000203166002900480156127225780601f106126f757610100808354040283529160200191612722565b820191906000526020600020905b81548152906001019060200180831161270557829003601f168201915b505050505091509450945094509450509193509193565b60076020528060005260406000206000915090505481565b60066020528060005260406000206000915090505481565b60008060009054906101000a900473ffffffffffffffffffffffffffffffffffffffff16905090565b60008060009054906101000a900473ffffffffffffffffffffffffffffffffffffffff1673ffffffffffffffffffffffffffffffffffffffff166127d4612d1c565b73ffffffffffffffffffffffffffffffffffffffff1614905090565b6000806000905060008090505b600a8054905081101561281f57818060010192505080806001019150506127fd565b508091505090565b6060806060600080600a868154811061283c57fe5b906000526020600020906004020190508060000181600101826002018360030160009054906101000a900473ffffffffffffffffffffffffffffffffffffffff16838054600181600116156101000203166002900480601f0160208091040260200160405190810160405280929190818152602001828054600181600116156101000203166002900480156129125780601f106128e757610100808354040283529160200191612912565b820191906000526020600020905b8154815290600101906020018083116128f557829003601f168201915b50505050509350828054600181600116156101000203166002900480601f0160208091040260200160405190810160405280929190818152602001828054600181600116156101000203166002900480156129ae5780601f10612983576101008083540402835291602001916129ae565b820191906000526020600020905b81548152906001019060200180831161299157829003601f168201915b50505050509250818054600181600116156101000203166002900480601f016020809104026020016040519081016040528092919081815260200182805460018160011615610100020316600290048015612a4a5780601f10612a1f57610100808354040283529160200191612a4a565b820191906000526020600020905b815481529060010190602001808311612a2d57829003601f168201915b505050505091509450945094509450509193509193565b600b8181548110612a6e57fe5b90600052602060002001600091509050806000018054600181600116156101000203166002900480601f016020809104026020016040519081016040528092919081815260200182805460018160011615610100020316600290048015612b165780601f10612aeb57610100808354040283529160200191612b16565b820191906000526020600020905b815481529060010190602001808311612af957829003601f168201915b5050505050905081565b60086020528060005260406000206000915054906101000a900473ffffffffffffffffffffffffffffffffffffffff1681565b60036020528060005260406000206000915054906101000a900473ffffffffffffffffffffffffffffffffffffffff1681565b6000600d54905090565b60006001600b6040518060200160405280858152509080600181540180825580915050906001820390600052602060002001600090919290919091506000820151816000019080519060200190612be8929190612e68565b5050500390507f9b461456bf22c34b04b705590ce2218c33439e5062e403bd18054efe39a4a6fc81836040518083815260200180602001828103825283818151815260200191508051906020019080838360005b83811015612c57578082015181840152602081019050612c3c565b50505050905090810190601f168015612c845780820380516001836020036101000a031916815260200191505b50935050505060405180910390a15050565b612c9e612792565b612d10576040517f08c379a00000000000000000000000000000000000000000000000000000000081526004018080602001828103825260208152602001807f4f776e61626c653a2063616c6c6572206973206e6f7420746865206f776e657281525060200191505060405180910390fd5b612d1981612d24565b50565b600033905090565b600073ffffffffffffffffffffffffffffffffffffffff168173ffffffffffffffffffffffffffffffffffffffff161415612daa576040517f08c379a0000000000000000000000000000000000000000000000000000000008152600401808060200182810382526026815260200180612f0e6026913960400191505060405180910390fd5b8073ffffffffffffffffffffffffffffffffffffffff166000809054906101000a900473ffffffffffffffffffffffffffffffffffffffff1673ffffffffffffffffffffffffffffffffffffffff167f8be0079c531659141344cd1fd0a4f28419497f9722a3daafe3b4186f6b6457e060405160405180910390a3806000806101000a81548173ffffffffffffffffffffffffffffffffffffffff021916908373ffffffffffffffffffffffffffffffffffffffff16021790555050565b828054600181600116156101000203166002900490600052602060002090601f016020900481019282601f10612ea957805160ff1916838001178555612ed7565b82800160010185558215612ed7579182015b82811115612ed6578251825591602001919060010190612ebb565b5b509050612ee49190612ee8565b5090565b612f0a91905b80821115612f06576000816000905550600101612eee565b5090565b9056fe4f776e61626c653a206e6577206f776e657220697320746865207a65726f2061646472657373a265627a7a7231582061357ff13d29f25667c6d0a7ee7fd3041d3a5eeb39955cb0b2994db0719daf8a64736f6c634300050c0032",
  "source": "pragma solidity >= 0.5.0 < 0.7.0;\n//pragma experimental ABIEncoderV2;\nimport \"@openzeppelin/contracts/ownership/Ownable.sol\";\n\n/// @title Immutable Post Contract\n/// @author Seb @Increaseo on the concept idea of Troy @Increaseo\n/// @notice For now, this contract create a post, category have a fee split.\n\ncontract ImmutablePosts is Ownable {\n    \n    // The Post\n    struct Post {\n        string title;\n        string description;\n        string category;\n        address authorpost;\n    }\n\n    //Category \n    struct Category {\n        string name;\n    }\n\n    //Author\n    struct Author {\n       string name;\n       string bio;\n       string link;\n       address authoraddress;\n    }\n    uint nbarticles = 0;\n\n    // Beneficiary Wallet address this is setup in the plugin\n   \n    //Our Wallet\n    address payable walletaddress = 0x6711be7371C275F62Ee7F69e4Cb7C09ACEd852cC; // Account 3 in Ganache\n\n    //Post to Owner\n    mapping (uint => address) public postToOwner;\n    // Owner to Post\n    mapping (address => uint) ownerToPost;\n    //Post Count per Owner\n    mapping (address => uint) ownerPostCount;\n\n     // Owner to Author\n    mapping (address => uint) public ownerToAuthor;\n    //Author Count per Owner\n    mapping (address => uint) public ownerAuthorCount;\n    //Author to Owner\n    mapping (uint => address) public authorToOwner;\n\n    \n    mapping (address => uint) balances;\n\n    // New Post created\n    event newPost(uint id, string title, string description, string category);\n    // New Category created\n    event newCategory(uint id, string categoryname);\n    // New Author created\n    event newAuthor(uint idauthor, string name, string bio, string link, address authoraddress);\n    \n\n    // ARRAY METHOD for Posts and Categories\n    Post[] public posts;\n    Category[] public categories;\n    Author[] public authors;\n\n    // Fee to post a Post approx 20USD\n    uint postFee = 87200000000000000 wei;\n\n    //Percentage share\n    uint commissionPercentage = 5;\n     \n    //Create a new author\n    function createAuthor (string memory _name, string memory _bio, string memory _link) public {\n        authors.push(Author(_name,_bio,_link, msg.sender));\n        uint idauthor =  authors.length -1;\n        authorToOwner[idauthor] = msg.sender;\n        ownerToAuthor[msg.sender] = idauthor;\n        ownerAuthorCount[msg.sender]++;\n        emit newAuthor(idauthor, _name,_bio,_link, msg.sender);\n\n    }\n     //Get Author per Account\n     function getAuthorbyAccount(address _owner) external view returns(uint[] memory) {\n        uint[] memory result = new uint[](ownerAuthorCount[_owner]);\n        uint counter = 0;\n        for (uint i = 0; i < authors.length; i++) {\n          if (authorToOwner[i] == _owner) {\n            result[counter] = i;\n            counter++;\n          }\n        }\n        return result;\n      }\n     // Get Author by Id Array\n      function getAuthorbyId(uint pos) public view returns(string memory name, string memory bio, string memory link, address authoraddress){ \n        Author storage authorss = authors[pos];\n        return (authorss.name, authorss.bio, authorss.link, authorss.authoraddress);\n     } \n\n\n    //Create a new post\n    function createPostandPay(string memory _title, string memory _description, string memory _category, address payable _pluginbeneficiary) public payable{\n          require(msg.value == postFee);\n          uint id = posts.push(Post(_title,_description,_category, msg.sender)) - 1;\n          postToOwner[id] = msg.sender;\n          ownerToPost[msg.sender] = id;\n          ownerPostCount[msg.sender]++;\n          emit newPost(id, _title, _description,_category);\n          nbarticles ++;\n          //Pay and Split the Fee\n          payAndSplitFee(postFee, _pluginbeneficiary);\n        \n          \n    }\n    //Split fee for the post between Beneficiary and Us\n    function payAndSplitFee(uint _fullfee, address payable _pluginbeneficiary) public payable {\n          \n\n          uint postFeeBeneficiary = _fullfee * commissionPercentage / 100;\n          _pluginbeneficiary.transfer(postFeeBeneficiary);\n          uint postFeeUs = _fullfee - postFeeBeneficiary;\n          walletaddress.transfer(postFeeUs);\n    }\n\n    //Create new category\n    function createCategory (string memory _categoryname) public {\n         uint id = categories.push(Category(_categoryname)) - 1;\n         emit newCategory(id, _categoryname);\n    }\n    \n\n    // Experimental so removed\n    // function getPosts() public view returns (Post[] memory){\n    //   Post[] memory id = new Post[](nbarticles);\n    //   for (uint i = 0; i < nbarticles; i++) {\n    //       Post storage post = posts[i];\n    //       id[i] = post;\n    //   }\n    //   return id;\n    //  }\n     \n    //  function getPostbyAccount(address _myAddress) public view returns (uint) {\n    //     return ownerToPost[_myAddress];\n    //   }\n\n     //Get Post per Account\n     function getPostbyAccount(address _owner) external view returns(uint[] memory) {\n        uint[] memory result = new uint[](ownerPostCount[_owner]);\n        uint counter = 0;\n        for (uint i = 0; i < posts.length; i++) {\n          if (postToOwner[i] == _owner) {\n            result[counter] = i;\n            counter++;\n          }\n        }\n        return result;\n      }\n     \n      // Get All Numbers of Posts\n      function getNbArticles() public view returns (uint _nbarticle){\n         uint counter = 0;\n        for (uint i = 0; i < posts.length; i++) {\n            counter++;\n        }\n        return counter;\n      }\n\n     // Get Post by Id Array\n      function getPostbyId(uint pos) public view returns(string memory title, string memory description, string memory category, address authorpost){ \n        Post storage postss = posts[pos];\n        return (postss.title, postss.description, postss.category, postss.authorpost);\n     } \n\n     // For Admin of the contract to control the fee\n     function setFee(uint _fee) external onlyOwner {\n        _fee = _fee * 10**18;\n        postFee = _fee;\n     }\n      function getFee() public view returns (uint)   {\n        return postFee;\n     }\n     \n      // For Admin of the contract to control the percentage\n     function setPercentage(uint _percent) external onlyOwner {\n        _percent = _percent;\n        commissionPercentage = _percent;\n     }\n\n\n     // Setup Beneficiary wallet adddress\n   //  function setUpBeneficiary(address payable _newbeneficiary) public {\n   //     pluginbeneficiary = _newbeneficiary;\n   //  }\n   //   function getNewBenef() public view returns (address payable)   {\n   //      return  pluginbeneficiary;\n   //   } \n    // Update our Wallet address Admin only \n     function setUpOurWallerAddress(address payable _ourwallet) public onlyOwner {\n       walletaddress = _ourwallet;\n    }\n\n    //Balance \n  //  function getBalanceInEth(address addr) public view returns(uint) {\n  //       return ConvertLib.convert(getBalance(addr),2);\n  //   }\n\n    // function getBalance(address addr) public view returns(uint) {\n    //     return balances[addr];\n    // }\n\n\n}\n",
  "sourcePath": "/Users/sebdigital/Documents/SEBDIGITAL/blockchain/immutableposts/contracts/ImmutablePosts.sol",
  "compiler": {
    "name": "solc",
    "version": "0.5.12+commit.7709ece9.Emscripten.clang"
  },
  "schemaVersion": "3.0.20",
  "updatedAt": "2020-03-04T16:19:28.449Z",
  "networkType": "ethereum",
  "devdoc": {
    "author": "Seb @Increaseo on the concept idea of Troy @Increaseo",
    "methods": {
      "isOwner()": {
        "details": "Returns true if the caller is the current owner."
      },
      "owner()": {
        "details": "Returns the address of the current owner."
      },
      "renounceOwnership()": {
        "details": "Leaves the contract without owner. It will not be possible to call `onlyOwner` functions anymore. Can only be called by the current owner.     * NOTE: Renouncing ownership will leave the contract without an owner, thereby removing any functionality that is only available to the owner."
      },
      "transferOwnership(address)": {
        "details": "Transfers ownership of the contract to a new account (`newOwner`). Can only be called by the current owner."
      }
    },
    "title": "Immutable Post Contract"
  },
  "userdoc": {
    "methods": {},
    "notice": "For now, this contract create a post, category have a fee split."
  }
}