{
  "contractName": "ImmutablePosts",
  "abi": [
    {
      "inputs": [],
      "payable": false,
      "stateMutability": "nonpayable",
      "type": "constructor"
    },
    {
      "anonymous": false,
      "inputs": [
        {
          "indexed": false,
          "internalType": "uint256",
          "name": "id",
          "type": "uint256"
        },
        {
          "indexed": false,
          "internalType": "string",
          "name": "categoryname",
          "type": "string"
        }
      ],
      "name": "newCategory",
      "type": "event"
    },
    {
      "anonymous": false,
      "inputs": [
        {
          "indexed": false,
          "internalType": "uint256",
          "name": "id",
          "type": "uint256"
        },
        {
          "indexed": false,
          "internalType": "string",
          "name": "title",
          "type": "string"
        },
        {
          "indexed": false,
          "internalType": "string",
          "name": "description",
          "type": "string"
        },
        {
          "indexed": false,
          "internalType": "string",
          "name": "category",
          "type": "string"
        }
      ],
      "name": "newPost",
      "type": "event"
    },
    {
      "constant": true,
      "inputs": [
        {
          "internalType": "uint256",
          "name": "",
          "type": "uint256"
        }
      ],
      "name": "PostToOwner",
      "outputs": [
        {
          "internalType": "address",
          "name": "",
          "type": "address"
        }
      ],
      "payable": false,
      "stateMutability": "view",
      "type": "function"
    },
    {
      "constant": true,
      "inputs": [
        {
          "internalType": "uint256",
          "name": "",
          "type": "uint256"
        }
      ],
      "name": "categories",
      "outputs": [
        {
          "internalType": "string",
          "name": "name",
          "type": "string"
        }
      ],
      "payable": false,
      "stateMutability": "view",
      "type": "function"
    },
    {
      "constant": true,
      "inputs": [
        {
          "internalType": "uint256",
          "name": "",
          "type": "uint256"
        }
      ],
      "name": "posts",
      "outputs": [
        {
          "internalType": "string",
          "name": "title",
          "type": "string"
        },
        {
          "internalType": "string",
          "name": "description",
          "type": "string"
        },
        {
          "internalType": "string",
          "name": "category",
          "type": "string"
        }
      ],
      "payable": false,
      "stateMutability": "view",
      "type": "function"
    },
    {
      "constant": false,
      "inputs": [
        {
          "internalType": "string",
          "name": "_title",
          "type": "string"
        },
        {
          "internalType": "string",
          "name": "_description",
          "type": "string"
        },
        {
          "internalType": "string",
          "name": "_category",
          "type": "string"
        }
      ],
      "name": "setPost",
      "outputs": [],
      "payable": false,
      "stateMutability": "nonpayable",
      "type": "function"
    },
    {
      "constant": false,
      "inputs": [
        {
          "internalType": "string",
          "name": "_categoryname",
          "type": "string"
        }
      ],
      "name": "createCategory",
      "outputs": [],
      "payable": false,
      "stateMutability": "nonpayable",
      "type": "function"
    },
    {
      "constant": true,
      "inputs": [],
      "name": "getPosts",
      "outputs": [
        {
          "components": [
            {
              "internalType": "string",
              "name": "title",
              "type": "string"
            },
            {
              "internalType": "string",
              "name": "description",
              "type": "string"
            },
            {
              "internalType": "string",
              "name": "category",
              "type": "string"
            }
          ],
          "internalType": "struct ImmutablePosts.Post[]",
          "name": "",
          "type": "tuple[]"
        }
      ],
      "payable": false,
      "stateMutability": "view",
      "type": "function"
    },
    {
      "constant": true,
      "inputs": [
        {
          "internalType": "address",
          "name": "_myAddress",
          "type": "address"
        }
      ],
      "name": "getPostbyAccount",
      "outputs": [
        {
          "internalType": "uint256",
          "name": "",
          "type": "uint256"
        }
      ],
      "payable": false,
      "stateMutability": "view",
      "type": "function"
    }
  ],
  "bytecode": "0x60806040526000805534801561001457600080fd5b50611118806100246000396000f3fe608060405234801561001057600080fd5b506004361061007d5760003560e01c806380d79a571161005b57806380d79a57146101025780639499e81314610132578063c6cdbe5e1461014e578063dc2986821461017e5761007d565b80630b1e7f831461008257806310997876146100b457806341f3004a146100e4575b600080fd5b61009c60048036036100979190810190610c25565b61019a565b6040516100ab93929190610e5d565b60405180910390f35b6100ce60048036036100c99190810190610b24565b610399565b6040516100db9190610ea9565b60405180910390f35b6100ec6103e2565b6040516100f99190610e19565b60405180910390f35b61011c60048036036101179190810190610c25565b610672565b6040516101299190610dfe565b60405180910390f35b61014c60048036036101479190810190610b8e565b6106a5565b005b61016860048036036101639190810190610c25565b610886565b6040516101759190610e3b565b60405180910390f35b61019860048036036101939190810190610b4d565b610945565b005b600481815481106101a757fe5b9060005260206000209060030201600091509050806000018054600181600116156101000203166002900480601f0160208091040260200160405190810160405280929190818152602001828054600181600116156101000203166002900480156102535780601f1061022857610100808354040283529160200191610253565b820191906000526020600020905b81548152906001019060200180831161023657829003601f168201915b505050505090806001018054600181600116156101000203166002900480601f0160208091040260200160405190810160405280929190818152602001828054600181600116156101000203166002900480156102f15780601f106102c6576101008083540402835291602001916102f1565b820191906000526020600020905b8154815290600101906020018083116102d457829003601f168201915b505050505090806002018054600181600116156101000203166002900480601f01602080910402602001604051908101604052809291908181526020018280546001816001161561010002031660029004801561038f5780601f106103645761010080835404028352916020019161038f565b820191906000526020600020905b81548152906001019060200180831161037257829003601f168201915b5050505050905083565b6000600260008373ffffffffffffffffffffffffffffffffffffffff1673ffffffffffffffffffffffffffffffffffffffff168152602001908152602001600020549050919050565b60608060005460405190808252806020026020018201604052801561042157816020015b61040e6109e0565b8152602001906001900390816104065790505b50905060008090505b60005481101561066a5760006004828154811061044357fe5b9060005260206000209060030201905080604051806060016040529081600082018054600181600116156101000203166002900480601f0160208091040260200160405190810160405280929190818152602001828054600181600116156101000203166002900480156104f85780601f106104cd576101008083540402835291602001916104f8565b820191906000526020600020905b8154815290600101906020018083116104db57829003601f168201915b50505050508152602001600182018054600181600116156101000203166002900480601f01602080910402602001604051908101604052809291908181526020018280546001816001161561010002031660029004801561059a5780601f1061056f5761010080835404028352916020019161059a565b820191906000526020600020905b81548152906001019060200180831161057d57829003601f168201915b50505050508152602001600282018054600181600116156101000203166002900480601f01602080910402602001604051908101604052809291908181526020018280546001816001161561010002031660029004801561063c5780601f106106115761010080835404028352916020019161063c565b820191906000526020600020905b81548152906001019060200180831161061f57829003601f168201915b50505050508152505083838151811061065157fe5b602002602001018190525050808060010191505061042a565b508091505090565b60016020528060005260406000206000915054906101000a900473ffffffffffffffffffffffffffffffffffffffff1681565b60006001600460405180606001604052808781526020018681526020018581525090806001815401808255809150509060018203906000526020600020906003020160009091929091909150600082015181600001908051906020019061070d929190610a01565b50602082015181600101908051906020019061072a929190610a01565b506040820151816002019080519060200190610747929190610a01565b505050039050336001600083815260200190815260200160002060006101000a81548173ffffffffffffffffffffffffffffffffffffffff021916908373ffffffffffffffffffffffffffffffffffffffff16021790555080600260003373ffffffffffffffffffffffffffffffffffffffff1673ffffffffffffffffffffffffffffffffffffffff16815260200190815260200160002081905550600360003373ffffffffffffffffffffffffffffffffffffffff1673ffffffffffffffffffffffffffffffffffffffff168152602001908152602001600020600081548092919060010191905055507fe11e7a2b84ce91d77d6e22703b19b4218d69af20d7a8418ba6d728b323dd1b1a818585856040516108679493929190610ef4565b60405180910390a1600080815480929190600101919050555050505050565b6005818154811061089357fe5b90600052602060002001600091509050806000018054600181600116156101000203166002900480601f01602080910402602001604051908101604052809291908181526020018280546001816001161561010002031660029004801561093b5780601f106109105761010080835404028352916020019161093b565b820191906000526020600020905b81548152906001019060200180831161091e57829003601f168201915b5050505050905081565b600060016005604051806020016040528085815250908060018154018082558091505090600182039060005260206000200160009091929091909150600082015181600001908051906020019061099d929190610a01565b5050500390507f9b461456bf22c34b04b705590ce2218c33439e5062e403bd18054efe39a4a6fc81836040516109d4929190610ec4565b60405180910390a15050565b60405180606001604052806060815260200160608152602001606081525090565b828054600181600116156101000203166002900490600052602060002090601f016020900481019282601f10610a4257805160ff1916838001178555610a70565b82800160010185558215610a70579182015b82811115610a6f578251825591602001919060010190610a54565b5b509050610a7d9190610a81565b5090565b610aa391905b80821115610a9f576000816000905550600101610a87565b5090565b90565b600081359050610ab5816110a7565b92915050565b600082601f830112610acc57600080fd5b8135610adf610ada82610f7b565b610f4e565b91508082526020830160208301858383011115610afb57600080fd5b610b06838284611054565b50505092915050565b600081359050610b1e816110be565b92915050565b600060208284031215610b3657600080fd5b6000610b4484828501610aa6565b91505092915050565b600060208284031215610b5f57600080fd5b600082013567ffffffffffffffff811115610b7957600080fd5b610b8584828501610abb565b91505092915050565b600080600060608486031215610ba357600080fd5b600084013567ffffffffffffffff811115610bbd57600080fd5b610bc986828701610abb565b935050602084013567ffffffffffffffff811115610be657600080fd5b610bf286828701610abb565b925050604084013567ffffffffffffffff811115610c0f57600080fd5b610c1b86828701610abb565b9150509250925092565b600060208284031215610c3757600080fd5b6000610c4584828501610b0f565b91505092915050565b6000610c5a8383610d91565b905092915050565b610c6b81611018565b82525050565b6000610c7c82610fb7565b610c868185610fe5565b935083602082028501610c9885610fa7565b8060005b85811015610cd45784840389528151610cb58582610c4e565b9450610cc083610fd8565b925060208a01995050600181019050610c9c565b50829750879550505050505092915050565b6000610cf182610fcd565b610cfb8185611007565b9350610d0b818560208601611063565b610d1481611096565b840191505092915050565b6000610d2a82610fc2565b610d348185610ff6565b9350610d44818560208601611063565b610d4d81611096565b840191505092915050565b6000610d6382610fc2565b610d6d8185611007565b9350610d7d818560208601611063565b610d8681611096565b840191505092915050565b60006060830160008301518482036000860152610dae8282610d1f565b91505060208301518482036020860152610dc88282610d1f565b91505060408301518482036040860152610de28282610d1f565b9150508091505092915050565b610df88161104a565b82525050565b6000602082019050610e136000830184610c62565b92915050565b60006020820190508181036000830152610e338184610c71565b905092915050565b60006020820190508181036000830152610e558184610d58565b905092915050565b60006060820190508181036000830152610e778186610d58565b90508181036020830152610e8b8185610d58565b90508181036040830152610e9f8184610d58565b9050949350505050565b6000602082019050610ebe6000830184610def565b92915050565b6000604082019050610ed96000830185610def565b8181036020830152610eeb8184610ce6565b90509392505050565b6000608082019050610f096000830187610def565b8181036020830152610f1b8186610ce6565b90508181036040830152610f2f8185610ce6565b90508181036060830152610f438184610ce6565b905095945050505050565b6000604051905081810181811067ffffffffffffffff82111715610f7157600080fd5b8060405250919050565b600067ffffffffffffffff821115610f9257600080fd5b601f19601f8301169050602081019050919050565b6000819050602082019050919050565b600081519050919050565b600081519050919050565b600081519050919050565b6000602082019050919050565b600082825260208201905092915050565b600082825260208201905092915050565b600082825260208201905092915050565b60006110238261102a565b9050919050565b600073ffffffffffffffffffffffffffffffffffffffff82169050919050565b6000819050919050565b82818337600083830152505050565b60005b83811015611081578082015181840152602081019050611066565b83811115611090576000848401525b50505050565b6000601f19601f8301169050919050565b6110b081611018565b81146110bb57600080fd5b50565b6110c78161104a565b81146110d257600080fd5b5056fea365627a7a7231582017f2434c668693c74bef7504778b361034ba96ce9d41da6b775d6256591628606c6578706572696d656e74616cf564736f6c634300050c0040",
  "source": "pragma solidity >= 0.5.0 < 0.7.0;\npragma experimental ABIEncoderV2;\n\ncontract ImmutablePosts {\n  constructor() public {\n  }\n\n  struct Post {\n        string title;\n        string description;\n        string category;\n    }\n    \n    struct Category {\n        string name;\n    }\n    uint nbarticles = 0;\n    \n    //Posts\n    //mapping (uint => Post) public posts;\n    \n    mapping (uint => address) public PostToOwner;\n    mapping (address => uint) ownerToPost;\n    mapping (address => uint) ownerPostCount;\n    \n    \n    event newPost (uint id, string title, string description, string category);\n    event newCategory(uint id, string categoryname);\n\n    // ARRAY METHOD\n    Post[] public posts;\n    Category[] public categories;\n    \n    function setPost(string memory _title, string memory _description, string memory _category) public {\n          uint id = posts.push(Post(_title,_description,_category)) - 1;\n          PostToOwner[id] = msg.sender;\n          ownerToPost[msg.sender] = id;\n          ownerPostCount[msg.sender]++;\n          emit newPost(id, _title, _description,_category);\n          nbarticles ++;\n    }\n    \n    function createCategory (string memory _categoryname) public {\n         uint id = categories.push(Category(_categoryname)) - 1;\n         emit newCategory(id, _categoryname);\n    }\n    \n    function getPosts() public view returns (Post[] memory){\n      Post[] memory id = new Post[](nbarticles);\n      for (uint i = 0; i < nbarticles; i++) {\n          Post storage post = posts[i];\n          id[i] = post;\n      }\n      return id;\n     }\n     \n     function getPostbyAccount(address _myAddress) public view returns (uint) {\n        return ownerToPost[_myAddress];\n      }\n\n}\n",
  "sourcePath": "/Users/sebdigital/Documents/SEBDIGITAL/blockchain/immutableposts/contracts/ImmutablePosts.sol",
  "compiler": {
    "name": "solc",
    "version": "0.5.12+commit.7709ece9.Emscripten.clang"
  },
  "schemaVersion": "3.0.20",
  "updatedAt": "2020-02-12T14:57:26.827Z",
  "networkType": "ethereum",
  "devdoc": {
    "methods": {}
  },
  "userdoc": {
    "methods": {}
  }
}