{
  "contractName": "ImmutablePosts",
  "abi": [
    {
      "constant": true,
      "inputs": [
        {
          "name": "",
          "type": "uint256"
        }
      ],
      "name": "posts",
      "outputs": [
        {
          "name": "title",
          "type": "string"
        },
        {
          "name": "description",
          "type": "string"
        },
        {
          "name": "category",
          "type": "string"
        }
      ],
      "payable": false,
      "stateMutability": "view",
      "type": "function"
    },
    {
      "constant": false,
      "inputs": [],
      "name": "renounceOwnership",
      "outputs": [],
      "payable": false,
      "stateMutability": "nonpayable",
      "type": "function"
    },
    {
      "constant": true,
      "inputs": [],
      "name": "owner",
      "outputs": [
        {
          "name": "",
          "type": "address"
        }
      ],
      "payable": false,
      "stateMutability": "view",
      "type": "function"
    },
    {
      "constant": true,
      "inputs": [
        {
          "name": "",
          "type": "uint256"
        }
      ],
      "name": "categories",
      "outputs": [
        {
          "name": "name",
          "type": "string"
        }
      ],
      "payable": false,
      "stateMutability": "view",
      "type": "function"
    },
    {
      "constant": true,
      "inputs": [
        {
          "name": "",
          "type": "uint256"
        }
      ],
      "name": "postToOwner",
      "outputs": [
        {
          "name": "",
          "type": "address"
        }
      ],
      "payable": false,
      "stateMutability": "view",
      "type": "function"
    },
    {
      "constant": false,
      "inputs": [
        {
          "name": "_newOwner",
          "type": "address"
        }
      ],
      "name": "transferOwnership",
      "outputs": [],
      "payable": false,
      "stateMutability": "nonpayable",
      "type": "function"
    },
    {
      "inputs": [],
      "payable": false,
      "stateMutability": "nonpayable",
      "type": "constructor"
    },
    {
      "anonymous": false,
      "inputs": [
        {
          "indexed": false,
          "name": "id",
          "type": "uint256"
        },
        {
          "indexed": false,
          "name": "title",
          "type": "string"
        },
        {
          "indexed": false,
          "name": "description",
          "type": "string"
        },
        {
          "indexed": false,
          "name": "category",
          "type": "string"
        }
      ],
      "name": "newPost",
      "type": "event"
    },
    {
      "anonymous": false,
      "inputs": [
        {
          "indexed": false,
          "name": "id",
          "type": "uint256"
        },
        {
          "indexed": false,
          "name": "categoryname",
          "type": "string"
        }
      ],
      "name": "newCategory",
      "type": "event"
    },
    {
      "anonymous": false,
      "inputs": [
        {
          "indexed": true,
          "name": "previousOwner",
          "type": "address"
        }
      ],
      "name": "OwnershipRenounced",
      "type": "event"
    },
    {
      "anonymous": false,
      "inputs": [
        {
          "indexed": true,
          "name": "previousOwner",
          "type": "address"
        },
        {
          "indexed": true,
          "name": "newOwner",
          "type": "address"
        }
      ],
      "name": "OwnershipTransferred",
      "type": "event"
    },
    {
      "constant": false,
      "inputs": [
        {
          "name": "_title",
          "type": "string"
        },
        {
          "name": "_description",
          "type": "string"
        },
        {
          "name": "_category",
          "type": "string"
        }
      ],
      "name": "createPostandPay",
      "outputs": [],
      "payable": true,
      "stateMutability": "payable",
      "type": "function"
    },
    {
      "constant": false,
      "inputs": [
        {
          "name": "_categoryname",
          "type": "string"
        }
      ],
      "name": "createCategory",
      "outputs": [],
      "payable": false,
      "stateMutability": "nonpayable",
      "type": "function"
    },
    {
      "constant": true,
      "inputs": [
        {
          "name": "_owner",
          "type": "address"
        }
      ],
      "name": "getPostbyAccount",
      "outputs": [
        {
          "name": "",
          "type": "uint256[]"
        }
      ],
      "payable": false,
      "stateMutability": "view",
      "type": "function"
    },
    {
      "constant": false,
      "inputs": [
        {
          "name": "_fee",
          "type": "uint256"
        }
      ],
      "name": "setFee",
      "outputs": [],
      "payable": false,
      "stateMutability": "nonpayable",
      "type": "function"
    },
    {
      "constant": false,
      "inputs": [
        {
          "name": "_ourwallet",
          "type": "address"
        }
      ],
      "name": "setUpOurWallerAddress",
      "outputs": [],
      "payable": false,
      "stateMutability": "nonpayable",
      "type": "function"
    }
  ],
  "bytecode": "0x6080604052600060015566038d7ea4c6800060095534801561002057600080fd5b50336000806101000a81548173ffffffffffffffffffffffffffffffffffffffff021916908373ffffffffffffffffffffffffffffffffffffffff160217905550611410806100706000396000f3006080604052600436106100af576000357c0100000000000000000000000000000000000000000000000000000000900463ffffffff1680630b1e7f83146100b457806310997876146102325780632b071d97146102ca57806345f96b411461030d57806369fe0e2d146103f5578063715018a6146104225780638da5cb5b14610439578063c6cdbe5e14610490578063cbe8ad2114610536578063dc298682146105a3578063f2fde38b1461060c575b600080fd5b3480156100c057600080fd5b506100df6004803603810190808035906020019092919050505061064f565b60405180806020018060200180602001848103845287818151815260200191508051906020019080838360005b8381101561012757808201518184015260208101905061010c565b50505050905090810190601f1680156101545780820380516001836020036101000a031916815260200191505b50848103835286818151815260200191508051906020019080838360005b8381101561018d578082015181840152602081019050610172565b50505050905090810190601f1680156101ba5780820380516001836020036101000a031916815260200191505b50848103825285818151815260200191508051906020019080838360005b838110156101f35780820151818401526020810190506101d8565b50505050905090810190601f1680156102205780820380516001836020036101000a031916815260200191505b50965050505050505060405180910390f35b34801561023e57600080fd5b50610273600480360381019080803573ffffffffffffffffffffffffffffffffffffffff169060200190929190505050610850565b6040518080602001828103825283818151815260200191508051906020019060200280838360005b838110156102b657808201518184015260208101905061029b565b505050509050019250505060405180910390f35b3480156102d657600080fd5b5061030b600480360381019080803573ffffffffffffffffffffffffffffffffffffffff169060200190929190505050610982565b005b6103f3600480360381019080803590602001908201803590602001908080601f0160208091040260200160405190810160405280939291908181526020018383808284378201915050505050509192919290803590602001908201803590602001908080601f0160208091040260200160405190810160405280939291908181526020018383808284378201915050505050509192919290803590602001908201803590602001908080601f0160208091040260200160405190810160405280939291908181526020018383808284378201915050505050509192919290505050610a21565b005b34801561040157600080fd5b5061042060048036038101908080359060200190929190505050610d60565b005b34801561042e57600080fd5b50610437610dc5565b005b34801561044557600080fd5b5061044e610ec7565b604051808273ffffffffffffffffffffffffffffffffffffffff1673ffffffffffffffffffffffffffffffffffffffff16815260200191505060405180910390f35b34801561049c57600080fd5b506104bb60048036038101908080359060200190929190505050610eec565b6040518080602001828103825283818151815260200191508051906020019080838360005b838110156104fb5780820151818401526020810190506104e0565b50505050905090810190601f1680156105285780820380516001836020036101000a031916815260200191505b509250505060405180910390f35b34801561054257600080fd5b5061056160048036038101908080359060200190929190505050610fad565b604051808273ffffffffffffffffffffffffffffffffffffffff1673ffffffffffffffffffffffffffffffffffffffff16815260200191505060405180910390f35b3480156105af57600080fd5b5061060a600480360381019080803590602001908201803590602001908080601f0160208091040260200160405190810160405280939291908181526020018383808284378201915050505050509192919290505050610fe0565b005b34801561061857600080fd5b5061064d600480360381019080803573ffffffffffffffffffffffffffffffffffffffff1690602001909291905050506110e7565b005b60078181548110151561065e57fe5b9060005260206000209060030201600091509050806000018054600181600116156101000203166002900480601f01602080910402602001604051908101604052809291908181526020018280546001816001161561010002031660029004801561070a5780601f106106df5761010080835404028352916020019161070a565b820191906000526020600020905b8154815290600101906020018083116106ed57829003601f168201915b505050505090806001018054600181600116156101000203166002900480601f0160208091040260200160405190810160405280929190818152602001828054600181600116156101000203166002900480156107a85780601f1061077d576101008083540402835291602001916107a8565b820191906000526020600020905b81548152906001019060200180831161078b57829003601f168201915b505050505090806002018054600181600116156101000203166002900480601f0160208091040260200160405190810160405280929190818152602001828054600181600116156101000203166002900480156108465780601f1061081b57610100808354040283529160200191610846565b820191906000526020600020905b81548152906001019060200180831161082957829003601f168201915b5050505050905083565b606080600080600660008673ffffffffffffffffffffffffffffffffffffffff1673ffffffffffffffffffffffffffffffffffffffff168152602001908152602001600020546040519080825280602002602001820160405280156108c45781602001602082028038833980820191505090505b50925060009150600090505b600780549050811015610977578473ffffffffffffffffffffffffffffffffffffffff166004600083815260200190815260200160002060009054906101000a900473ffffffffffffffffffffffffffffffffffffffff1673ffffffffffffffffffffffffffffffffffffffff16141561096a5780838381518110151561095357fe5b906020019060200201818152505081806001019250505b80806001019150506108d0565b829350505050919050565b6000809054906101000a900473ffffffffffffffffffffffffffffffffffffffff1673ffffffffffffffffffffffffffffffffffffffff163373ffffffffffffffffffffffffffffffffffffffff161415156109dd57600080fd5b80600360006101000a81548173ffffffffffffffffffffffffffffffffffffffff021916908373ffffffffffffffffffffffffffffffffffffffff16021790555050565b600060095434141515610a3357600080fd5b6001600760606040519081016040528087815260200186815260200185815250908060018154018082558091505090600182039060005260206000209060030201600090919290919091506000820151816000019080519060200190610a9a92919061133f565b506020820151816001019080519060200190610ab792919061133f565b506040820151816002019080519060200190610ad492919061133f565b505050039050336004600083815260200190815260200160002060006101000a81548173ffffffffffffffffffffffffffffffffffffffff021916908373ffffffffffffffffffffffffffffffffffffffff16021790555080600560003373ffffffffffffffffffffffffffffffffffffffff1673ffffffffffffffffffffffffffffffffffffffff16815260200190815260200160002081905550600660003373ffffffffffffffffffffffffffffffffffffffff1673ffffffffffffffffffffffffffffffffffffffff168152602001908152602001600020600081548092919060010191905055507fe11e7a2b84ce91d77d6e22703b19b4218d69af20d7a8418ba6d728b323dd1b1a8185858560405180858152602001806020018060200180602001848103845287818151815260200191508051906020019080838360005b83811015610c32578082015181840152602081019050610c17565b50505050905090810190601f168015610c5f5780820380516001836020036101000a031916815260200191505b50848103835286818151815260200191508051906020019080838360005b83811015610c98578082015181840152602081019050610c7d565b50505050905090810190601f168015610cc55780820380516001836020036101000a031916815260200191505b50848103825285818151815260200191508051906020019080838360005b83811015610cfe578082015181840152602081019050610ce3565b50505050905090810190601f168015610d2b5780820380516001836020036101000a031916815260200191505b5097505050505050505060405180910390a1600160008154809291906001019190505550610d5a60095461114e565b50505050565b6000809054906101000a900473ffffffffffffffffffffffffffffffffffffffff1673ffffffffffffffffffffffffffffffffffffffff163373ffffffffffffffffffffffffffffffffffffffff16141515610dbb57600080fd5b8060098190555050565b6000809054906101000a900473ffffffffffffffffffffffffffffffffffffffff1673ffffffffffffffffffffffffffffffffffffffff163373ffffffffffffffffffffffffffffffffffffffff16141515610e2057600080fd5b6000809054906101000a900473ffffffffffffffffffffffffffffffffffffffff1673ffffffffffffffffffffffffffffffffffffffff167ff8df31144d9c2f0f6b59d69b8b98abd5459d07f2742c4df920b25aae33c6482060405160405180910390a260008060006101000a81548173ffffffffffffffffffffffffffffffffffffffff021916908373ffffffffffffffffffffffffffffffffffffffff160217905550565b6000809054906101000a900473ffffffffffffffffffffffffffffffffffffffff1681565b600881815481101515610efb57fe5b90600052602060002001600091509050806000018054600181600116156101000203166002900480601f016020809104026020016040519081016040528092919081815260200182805460018160011615610100020316600290048015610fa35780601f10610f7857610100808354040283529160200191610fa3565b820191906000526020600020905b815481529060010190602001808311610f8657829003601f168201915b5050505050905081565b60046020528060005260406000206000915054906101000a900473ffffffffffffffffffffffffffffffffffffffff1681565b60006001600860206040519081016040528085815250908060018154018082558091505090600182039060005260206000200160009091929091909150600082015181600001908051906020019061103992919061133f565b5050500390507f9b461456bf22c34b04b705590ce2218c33439e5062e403bd18054efe39a4a6fc81836040518083815260200180602001828103825283818151815260200191508051906020019080838360005b838110156110a857808201518184015260208101905061108d565b50505050905090810190601f1680156110d55780820380516001836020036101000a031916815260200191505b50935050505060405180910390a15050565b6000809054906101000a900473ffffffffffffffffffffffffffffffffffffffff1673ffffffffffffffffffffffffffffffffffffffff163373ffffffffffffffffffffffffffffffffffffffff1614151561114257600080fd5b61114b81611245565b50565b600080600060029250606483850281151561116557fe5b049150600260009054906101000a900473ffffffffffffffffffffffffffffffffffffffff1673ffffffffffffffffffffffffffffffffffffffff166108fc839081150290604051600060405180830381858888f193505050501580156111d0573d6000803e3d6000fd5b508184039050600360009054906101000a900473ffffffffffffffffffffffffffffffffffffffff1673ffffffffffffffffffffffffffffffffffffffff166108fc829081150290604051600060405180830381858888f1935050505015801561123e573d6000803e3d6000fd5b5050505050565b600073ffffffffffffffffffffffffffffffffffffffff168173ffffffffffffffffffffffffffffffffffffffff161415151561128157600080fd5b8073ffffffffffffffffffffffffffffffffffffffff166000809054906101000a900473ffffffffffffffffffffffffffffffffffffffff1673ffffffffffffffffffffffffffffffffffffffff167f8be0079c531659141344cd1fd0a4f28419497f9722a3daafe3b4186f6b6457e060405160405180910390a3806000806101000a81548173ffffffffffffffffffffffffffffffffffffffff021916908373ffffffffffffffffffffffffffffffffffffffff16021790555050565b828054600181600116156101000203166002900490600052602060002090601f016020900481019282601f1061138057805160ff19168380011785556113ae565b828001600101855582156113ae579182015b828111156113ad578251825591602001919060010190611392565b5b5090506113bb91906113bf565b5090565b6113e191905b808211156113dd5760008160009055506001016113c5565b5090565b905600a165627a7a7230582088aa1f52780e32c19ded94a9de5dddef9447927f585e69ce4b0934675c258ff40029",
  "source": "pragma solidity >= 0.4.0 < 0.7.0;\n//pragma experimental ABIEncoderV2;\nimport \"zeppelin-solidity/contracts/ownership/Ownable.sol\";\n\n\ncontract ImmutablePosts is Ownable {\n    constructor() public {\n  \n    }\n\n\n   struct Post {\n        string title;\n        string description;\n        string category;\n    }\n    \n    struct Category {\n        string name;\n    }\n    uint nbarticles = 0;\n\n    // Beneficiary Wallet address\n    address pluginbeneficiary;\n    \n    //Our Wallet\n    address walletaddress;\n\n    mapping (uint => address) public postToOwner;\n    mapping (address => uint) ownerToPost;\n    mapping (address => uint) ownerPostCount;\n    \n    \n    event newPost (uint id, string title, string description, string category);\n    event newCategory(uint id, string categoryname);\n\n    // ARRAY METHOD\n    Post[] public posts;\n    Category[] public categories;\n\n    // Fee to post a Post\n    uint postFee = 0.001 ether;\n    \n    function createPostandPay(string memory _title, string memory _description, string memory _category) public payable {\n          require(msg.value == postFee);\n          uint id = posts.push(Post(_title,_description,_category)) - 1;\n          postToOwner[id] = msg.sender;\n          ownerToPost[msg.sender] = id;\n          ownerPostCount[msg.sender]++;\n          emit newPost(id, _title, _description,_category);\n          nbarticles ++;\n          payAndSplitFee(postFee);\n          \n          \n    }\n    //Split fee between Beneficiary and Us\n    function payAndSplitFee(uint _fullfee) internal {\n          uint commissionPercentage = 2;\n          uint postFeeBeneficiary = _fullfee * commissionPercentage / 100;\n          pluginbeneficiary.transfer(postFeeBeneficiary);\n          uint postFeeUs = _fullfee - postFeeBeneficiary;\n          walletaddress.transfer(postFeeUs);\n    }\n\n    \n    function createCategory (string memory _categoryname) public {\n         uint id = categories.push(Category(_categoryname)) - 1;\n         emit newCategory(id, _categoryname);\n    }\n    \n\n    // Experimental so removed\n    // function getPosts() public view returns (Post[] memory){\n    //   Post[] memory id = new Post[](nbarticles);\n    //   for (uint i = 0; i < nbarticles; i++) {\n    //       Post storage post = posts[i];\n    //       id[i] = post;\n    //   }\n    //   return id;\n    //  }\n     \n    //  function getPostbyAccount(address _myAddress) public view returns (uint) {\n    //     return ownerToPost[_myAddress];\n    //   }\n\n     function getPostbyAccount(address _owner) external view returns(uint[]) {\n        uint[] memory result = new uint[](ownerPostCount[_owner]);\n        uint counter = 0;\n        for (uint i = 0; i < posts.length; i++) {\n          if (postToOwner[i] == _owner) {\n            result[counter] = i;\n            counter++;\n          }\n        }\n        return result;\n      }\n\n     // For Admin of the contract to control the fee\n     function setFee(uint _fee) external onlyOwner {\n        postFee = _fee;\n     }\n     \n     // Setup Beneficiary wallet adddress\n    function setUpBeneficiary(address _newbeneficiary) internal {\n       pluginbeneficiary = _newbeneficiary;\n    }\n\n     function setUpOurWallerAddress(address _ourwallet) external onlyOwner {\n       walletaddress = _ourwallet;\n    }\n     \n\n}\n",
  "sourcePath": "/Users/sebdigital/Documents/SEBDIGITAL/blockchain/immutableposts/contracts/ImmutablePosts.sol",
  "compiler": {
    "name": "solc",
    "version": "0.4.24+commit.e67f0147.Emscripten.clang"
  },
  "schemaVersion": "3.0.20",
  "updatedAt": "2020-02-13T14:14:46.413Z",
  "devdoc": {
    "methods": {
      "renounceOwnership()": {
        "details": "Allows the current owner to relinquish control of the contract."
      },
      "transferOwnership(address)": {
        "details": "Allows the current owner to transfer control of the contract to a newOwner.",
        "params": {
          "_newOwner": "The address to transfer ownership to."
        }
      }
    }
  },
  "userdoc": {
    "methods": {
      "renounceOwnership()": {
        "notice": "Renouncing to ownership will leave the contract without an owner. It will not be possible to call the functions with the `onlyOwner` modifier anymore."
      }
    }
  }
}