{
  "contractName": "ImmutablePosts",
  "abi": [
    {
      "anonymous": false,
      "inputs": [
        {
          "indexed": true,
          "internalType": "address",
          "name": "previousOwner",
          "type": "address"
        },
        {
          "indexed": true,
          "internalType": "address",
          "name": "newOwner",
          "type": "address"
        }
      ],
      "name": "OwnershipTransferred",
      "type": "event"
    },
    {
      "anonymous": false,
      "inputs": [
        {
          "indexed": false,
          "internalType": "uint256",
          "name": "id",
          "type": "uint256"
        },
        {
          "indexed": false,
          "internalType": "string",
          "name": "categoryname",
          "type": "string"
        }
      ],
      "name": "newCategory",
      "type": "event"
    },
    {
      "anonymous": false,
      "inputs": [
        {
          "indexed": false,
          "internalType": "uint256",
          "name": "id",
          "type": "uint256"
        },
        {
          "indexed": false,
          "internalType": "string",
          "name": "title",
          "type": "string"
        },
        {
          "indexed": false,
          "internalType": "string",
          "name": "description",
          "type": "string"
        },
        {
          "indexed": false,
          "internalType": "string",
          "name": "category",
          "type": "string"
        }
      ],
      "name": "newPost",
      "type": "event"
    },
    {
      "constant": true,
      "inputs": [
        {
          "internalType": "uint256",
          "name": "",
          "type": "uint256"
        }
      ],
      "name": "categories",
      "outputs": [
        {
          "internalType": "string",
          "name": "name",
          "type": "string"
        }
      ],
      "payable": false,
      "stateMutability": "view",
      "type": "function"
    },
    {
      "constant": true,
      "inputs": [],
      "name": "isOwner",
      "outputs": [
        {
          "internalType": "bool",
          "name": "",
          "type": "bool"
        }
      ],
      "payable": false,
      "stateMutability": "view",
      "type": "function"
    },
    {
      "constant": true,
      "inputs": [],
      "name": "owner",
      "outputs": [
        {
          "internalType": "address",
          "name": "",
          "type": "address"
        }
      ],
      "payable": false,
      "stateMutability": "view",
      "type": "function"
    },
    {
      "constant": true,
      "inputs": [
        {
          "internalType": "uint256",
          "name": "",
          "type": "uint256"
        }
      ],
      "name": "postToOwner",
      "outputs": [
        {
          "internalType": "address",
          "name": "",
          "type": "address"
        }
      ],
      "payable": false,
      "stateMutability": "view",
      "type": "function"
    },
    {
      "constant": true,
      "inputs": [
        {
          "internalType": "uint256",
          "name": "",
          "type": "uint256"
        }
      ],
      "name": "posts",
      "outputs": [
        {
          "internalType": "string",
          "name": "title",
          "type": "string"
        },
        {
          "internalType": "string",
          "name": "description",
          "type": "string"
        },
        {
          "internalType": "string",
          "name": "category",
          "type": "string"
        }
      ],
      "payable": false,
      "stateMutability": "view",
      "type": "function"
    },
    {
      "constant": false,
      "inputs": [],
      "name": "renounceOwnership",
      "outputs": [],
      "payable": false,
      "stateMutability": "nonpayable",
      "type": "function"
    },
    {
      "constant": false,
      "inputs": [
        {
          "internalType": "address",
          "name": "newOwner",
          "type": "address"
        }
      ],
      "name": "transferOwnership",
      "outputs": [],
      "payable": false,
      "stateMutability": "nonpayable",
      "type": "function"
    },
    {
      "constant": false,
      "inputs": [
        {
          "internalType": "string",
          "name": "_title",
          "type": "string"
        },
        {
          "internalType": "string",
          "name": "_description",
          "type": "string"
        },
        {
          "internalType": "string",
          "name": "_category",
          "type": "string"
        }
      ],
      "name": "createPostandPay",
      "outputs": [],
      "payable": true,
      "stateMutability": "payable",
      "type": "function"
    },
    {
      "constant": false,
      "inputs": [
        {
          "internalType": "uint256",
          "name": "_fullfee",
          "type": "uint256"
        }
      ],
      "name": "payAndSplitFee",
      "outputs": [],
      "payable": true,
      "stateMutability": "payable",
      "type": "function"
    },
    {
      "constant": false,
      "inputs": [
        {
          "internalType": "string",
          "name": "_categoryname",
          "type": "string"
        }
      ],
      "name": "createCategory",
      "outputs": [],
      "payable": false,
      "stateMutability": "nonpayable",
      "type": "function"
    },
    {
      "constant": true,
      "inputs": [
        {
          "internalType": "address",
          "name": "_owner",
          "type": "address"
        }
      ],
      "name": "getPostbyAccount",
      "outputs": [
        {
          "internalType": "uint256[]",
          "name": "",
          "type": "uint256[]"
        }
      ],
      "payable": false,
      "stateMutability": "view",
      "type": "function"
    },
    {
      "constant": true,
      "inputs": [],
      "name": "getNbArticles",
      "outputs": [
        {
          "internalType": "uint256",
          "name": "_nbarticle",
          "type": "uint256"
        }
      ],
      "payable": false,
      "stateMutability": "view",
      "type": "function"
    },
    {
      "constant": true,
      "inputs": [
        {
          "internalType": "uint256",
          "name": "pos",
          "type": "uint256"
        }
      ],
      "name": "getPostbyId",
      "outputs": [
        {
          "internalType": "string",
          "name": "title",
          "type": "string"
        },
        {
          "internalType": "string",
          "name": "description",
          "type": "string"
        },
        {
          "internalType": "string",
          "name": "category",
          "type": "string"
        }
      ],
      "payable": false,
      "stateMutability": "view",
      "type": "function"
    },
    {
      "constant": false,
      "inputs": [
        {
          "internalType": "uint256",
          "name": "_fee",
          "type": "uint256"
        }
      ],
      "name": "setFee",
      "outputs": [],
      "payable": false,
      "stateMutability": "nonpayable",
      "type": "function"
    },
    {
      "constant": true,
      "inputs": [],
      "name": "getFee",
      "outputs": [
        {
          "internalType": "uint256",
          "name": "",
          "type": "uint256"
        }
      ],
      "payable": false,
      "stateMutability": "view",
      "type": "function"
    },
    {
      "constant": false,
      "inputs": [
        {
          "internalType": "uint256",
          "name": "_percent",
          "type": "uint256"
        }
      ],
      "name": "setPercentage",
      "outputs": [],
      "payable": false,
      "stateMutability": "nonpayable",
      "type": "function"
    },
    {
      "constant": false,
      "inputs": [
        {
          "internalType": "address payable",
          "name": "_newbeneficiary",
          "type": "address"
        }
      ],
      "name": "setUpBeneficiary",
      "outputs": [],
      "payable": false,
      "stateMutability": "nonpayable",
      "type": "function"
    },
    {
      "constant": true,
      "inputs": [],
      "name": "getNewBenef",
      "outputs": [
        {
          "internalType": "address payable",
          "name": "",
          "type": "address"
        }
      ],
      "payable": false,
      "stateMutability": "view",
      "type": "function"
    },
    {
      "constant": false,
      "inputs": [
        {
          "internalType": "address payable",
          "name": "_ourwallet",
          "type": "address"
        }
      ],
      "name": "setUpOurWallerAddress",
      "outputs": [],
      "payable": false,
      "stateMutability": "nonpayable",
      "type": "function"
    }
  ],
  "bytecode": "0x6080604052600060015573a27f275ba433f981a6ed1d94a3597fb82952c6c6600260006101000a81548173ffffffffffffffffffffffffffffffffffffffff021916908373ffffffffffffffffffffffffffffffffffffffff160217905550736711be7371c275f62ee7f69e4cb7c09aced852cc600360006101000a81548173ffffffffffffffffffffffffffffffffffffffff021916908373ffffffffffffffffffffffffffffffffffffffff160217905550670135cbf0206a0000600a556005600b5560006100d461017760201b60201c565b9050806000806101000a81548173ffffffffffffffffffffffffffffffffffffffff021916908373ffffffffffffffffffffffffffffffffffffffff1602179055508073ffffffffffffffffffffffffffffffffffffffff16600073ffffffffffffffffffffffffffffffffffffffff167f8be0079c531659141344cd1fd0a4f28419497f9722a3daafe3b4186f6b6457e060405160405180910390a35061017f565b600033905090565b611e128061018e6000396000f3fe6080604052600436106101145760003560e01c80638da5cb5b116100a0578063c6cdbe5e11610064578063c6cdbe5e14610925578063cbe8ad21146109d9578063ced72f8714610a54578063dc29868214610a7f578063f2fde38b14610b4757610114565b80638da5cb5b146106975780638f32d59b146106ee578063945979dc1461071d5780639d677b0a14610748578063c4e744d6146108d457610114565b806345f96b41116100e757806345f96b41146103ca5780635da4a1d3146105b357806369fe0e2d146105ee5780636fbf608814610629578063715018a61461068057610114565b80630b1e7f831461011957806310997876146102a55780632b071d971461034b5780633ff8dd751461039c575b600080fd5b34801561012557600080fd5b506101526004803603602081101561013c57600080fd5b8101908080359060200190929190505050610b98565b60405180806020018060200180602001848103845287818151815260200191508051906020019080838360005b8381101561019a57808201518184015260208101905061017f565b50505050905090810190601f1680156101c75780820380516001836020036101000a031916815260200191505b50848103835286818151815260200191508051906020019080838360005b838110156102005780820151818401526020810190506101e5565b50505050905090810190601f16801561022d5780820380516001836020036101000a031916815260200191505b50848103825285818151815260200191508051906020019080838360005b8381101561026657808201518184015260208101905061024b565b50505050905090810190601f1680156102935780820380516001836020036101000a031916815260200191505b50965050505050505060405180910390f35b3480156102b157600080fd5b506102f4600480360360208110156102c857600080fd5b81019080803573ffffffffffffffffffffffffffffffffffffffff169060200190929190505050610d97565b6040518080602001828103825283818151815260200191508051906020019060200280838360005b8381101561033757808201518184015260208101905061031c565b505050509050019250505060405180910390f35b34801561035757600080fd5b5061039a6004803603602081101561036e57600080fd5b81019080803573ffffffffffffffffffffffffffffffffffffffff169060200190929190505050610ec4565b005b6103c8600480360360208110156103b257600080fd5b8101908080359060200190929190505050610f82565b005b6105b1600480360360608110156103e057600080fd5b81019080803590602001906401000000008111156103fd57600080fd5b82018360208201111561040f57600080fd5b8035906020019184600183028401116401000000008311171561043157600080fd5b91908080601f016020809104026020016040519081016040528093929190818152602001838380828437600081840152601f19601f8201169050808301925050505050505091929192908035906020019064010000000081111561049457600080fd5b8201836020820111156104a657600080fd5b803590602001918460018302840111640100000000831117156104c857600080fd5b91908080601f016020809104026020016040519081016040528093929190818152602001838380828437600081840152601f19601f8201169050808301925050505050505091929192908035906020019064010000000081111561052b57600080fd5b82018360208201111561053d57600080fd5b8035906020019184600183028401116401000000008311171561055f57600080fd5b91908080601f016020809104026020016040519081016040528093929190818152602001838380828437600081840152601f19601f820116905080830192505050505050509192919290505050611073565b005b3480156105bf57600080fd5b506105ec600480360360208110156105d657600080fd5b81019080803590602001909291905050506113af565b005b3480156105fa57600080fd5b506106276004803603602081101561061157600080fd5b8101908080359060200190929190505050611436565b005b34801561063557600080fd5b5061063e6114c7565b604051808273ffffffffffffffffffffffffffffffffffffffff1673ffffffffffffffffffffffffffffffffffffffff16815260200191505060405180910390f35b34801561068c57600080fd5b506106956114f1565b005b3480156106a357600080fd5b506106ac61162a565b604051808273ffffffffffffffffffffffffffffffffffffffff1673ffffffffffffffffffffffffffffffffffffffff16815260200191505060405180910390f35b3480156106fa57600080fd5b50610703611653565b604051808215151515815260200191505060405180910390f35b34801561072957600080fd5b506107326116b1565b6040518082815260200191505060405180910390f35b34801561075457600080fd5b506107816004803603602081101561076b57600080fd5b81019080803590602001909291905050506116e8565b60405180806020018060200180602001848103845287818151815260200191508051906020019080838360005b838110156107c95780820151818401526020810190506107ae565b50505050905090810190601f1680156107f65780820380516001836020036101000a031916815260200191505b50848103835286818151815260200191508051906020019080838360005b8381101561082f578082015181840152602081019050610814565b50505050905090810190601f16801561085c5780820380516001836020036101000a031916815260200191505b50848103825285818151815260200191508051906020019080838360005b8381101561089557808201518184015260208101905061087a565b50505050905090810190601f1680156108c25780820380516001836020036101000a031916815260200191505b50965050505050505060405180910390f35b3480156108e057600080fd5b50610923600480360360208110156108f757600080fd5b81019080803573ffffffffffffffffffffffffffffffffffffffff1690602001909291905050506118fa565b005b34801561093157600080fd5b5061095e6004803603602081101561094857600080fd5b810190808035906020019092919050505061193e565b6040518080602001828103825283818151815260200191508051906020019080838360005b8381101561099e578082015181840152602081019050610983565b50505050905090810190601f1680156109cb5780820380516001836020036101000a031916815260200191505b509250505060405180910390f35b3480156109e557600080fd5b50610a12600480360360208110156109fc57600080fd5b81019080803590602001909291905050506119fd565b604051808273ffffffffffffffffffffffffffffffffffffffff1673ffffffffffffffffffffffffffffffffffffffff16815260200191505060405180910390f35b348015610a6057600080fd5b50610a69611a30565b6040518082815260200191505060405180910390f35b348015610a8b57600080fd5b50610b4560048036036020811015610aa257600080fd5b8101908080359060200190640100000000811115610abf57600080fd5b820183602082011115610ad157600080fd5b80359060200191846001830284011164010000000083111715610af357600080fd5b91908080601f016020809104026020016040519081016040528093929190818152602001838380828437600081840152601f19601f820116905080830192505050505050509192919290505050611a3a565b005b348015610b5357600080fd5b50610b9660048036036020811015610b6a57600080fd5b81019080803573ffffffffffffffffffffffffffffffffffffffff169060200190929190505050611b40565b005b60088181548110610ba557fe5b9060005260206000209060030201600091509050806000018054600181600116156101000203166002900480601f016020809104026020016040519081016040528092919081815260200182805460018160011615610100020316600290048015610c515780601f10610c2657610100808354040283529160200191610c51565b820191906000526020600020905b815481529060010190602001808311610c3457829003601f168201915b505050505090806001018054600181600116156101000203166002900480601f016020809104026020016040519081016040528092919081815260200182805460018160011615610100020316600290048015610cef5780601f10610cc457610100808354040283529160200191610cef565b820191906000526020600020905b815481529060010190602001808311610cd257829003601f168201915b505050505090806002018054600181600116156101000203166002900480601f016020809104026020016040519081016040528092919081815260200182805460018160011615610100020316600290048015610d8d5780601f10610d6257610100808354040283529160200191610d8d565b820191906000526020600020905b815481529060010190602001808311610d7057829003601f168201915b5050505050905083565b606080600660008473ffffffffffffffffffffffffffffffffffffffff1673ffffffffffffffffffffffffffffffffffffffff16815260200190815260200160002054604051908082528060200260200182016040528015610e085781602001602082028038833980820191505090505b509050600080905060008090505b600880549050811015610eb9578473ffffffffffffffffffffffffffffffffffffffff166004600083815260200190815260200160002060009054906101000a900473ffffffffffffffffffffffffffffffffffffffff1673ffffffffffffffffffffffffffffffffffffffff161415610eac5780838381518110610e9757fe5b60200260200101818152505081806001019250505b8080600101915050610e16565b508192505050919050565b610ecc611653565b610f3e576040517f08c379a00000000000000000000000000000000000000000000000000000000081526004018080602001828103825260208152602001807f4f776e61626c653a2063616c6c6572206973206e6f7420746865206f776e657281525060200191505060405180910390fd5b80600360006101000a81548173ffffffffffffffffffffffffffffffffffffffff021916908373ffffffffffffffffffffffffffffffffffffffff16021790555050565b60006064600b54830281610f9257fe5b049050600260009054906101000a900473ffffffffffffffffffffffffffffffffffffffff1673ffffffffffffffffffffffffffffffffffffffff166108fc829081150290604051600060405180830381858888f19350505050158015610ffd573d6000803e3d6000fd5b5060008183039050600360009054906101000a900473ffffffffffffffffffffffffffffffffffffffff1673ffffffffffffffffffffffffffffffffffffffff166108fc829081150290604051600060405180830381858888f1935050505015801561106d573d6000803e3d6000fd5b50505050565b600a54341461108157600080fd5b6000600160086040518060600160405280878152602001868152602001858152509080600181540180825580915050906001820390600052602060002090600302016000909192909190915060008201518160000190805190602001906110e9929190611d12565b506020820151816001019080519060200190611106929190611d12565b506040820151816002019080519060200190611123929190611d12565b505050039050336004600083815260200190815260200160002060006101000a81548173ffffffffffffffffffffffffffffffffffffffff021916908373ffffffffffffffffffffffffffffffffffffffff16021790555080600560003373ffffffffffffffffffffffffffffffffffffffff1673ffffffffffffffffffffffffffffffffffffffff16815260200190815260200160002081905550600660003373ffffffffffffffffffffffffffffffffffffffff1673ffffffffffffffffffffffffffffffffffffffff168152602001908152602001600020600081548092919060010191905055507fe11e7a2b84ce91d77d6e22703b19b4218d69af20d7a8418ba6d728b323dd1b1a8185858560405180858152602001806020018060200180602001848103845287818151815260200191508051906020019080838360005b83811015611281578082015181840152602081019050611266565b50505050905090810190601f1680156112ae5780820380516001836020036101000a031916815260200191505b50848103835286818151815260200191508051906020019080838360005b838110156112e75780820151818401526020810190506112cc565b50505050905090810190601f1680156113145780820380516001836020036101000a031916815260200191505b50848103825285818151815260200191508051906020019080838360005b8381101561134d578082015181840152602081019050611332565b50505050905090810190601f16801561137a5780820380516001836020036101000a031916815260200191505b5097505050505050505060405180910390a16001600081548092919060010191905055506113a9600a54610f82565b50505050565b6113b7611653565b611429576040517f08c379a00000000000000000000000000000000000000000000000000000000081526004018080602001828103825260208152602001807f4f776e61626c653a2063616c6c6572206973206e6f7420746865206f776e657281525060200191505060405180910390fd5b80905080600b8190555050565b61143e611653565b6114b0576040517f08c379a00000000000000000000000000000000000000000000000000000000081526004018080602001828103825260208152602001807f4f776e61626c653a2063616c6c6572206973206e6f7420746865206f776e657281525060200191505060405180910390fd5b670de0b6b3a76400008102905080600a8190555050565b6000600260009054906101000a900473ffffffffffffffffffffffffffffffffffffffff16905090565b6114f9611653565b61156b576040517f08c379a00000000000000000000000000000000000000000000000000000000081526004018080602001828103825260208152602001807f4f776e61626c653a2063616c6c6572206973206e6f7420746865206f776e657281525060200191505060405180910390fd5b600073ffffffffffffffffffffffffffffffffffffffff166000809054906101000a900473ffffffffffffffffffffffffffffffffffffffff1673ffffffffffffffffffffffffffffffffffffffff167f8be0079c531659141344cd1fd0a4f28419497f9722a3daafe3b4186f6b6457e060405160405180910390a360008060006101000a81548173ffffffffffffffffffffffffffffffffffffffff021916908373ffffffffffffffffffffffffffffffffffffffff160217905550565b60008060009054906101000a900473ffffffffffffffffffffffffffffffffffffffff16905090565b60008060009054906101000a900473ffffffffffffffffffffffffffffffffffffffff1673ffffffffffffffffffffffffffffffffffffffff16611695611bc6565b73ffffffffffffffffffffffffffffffffffffffff1614905090565b6000806000905060008090505b6008805490508110156116e057818060010192505080806001019150506116be565b508091505090565b60608060606000600885815481106116fc57fe5b90600052602060002090600302019050806000018160010182600201828054600181600116156101000203166002900480601f0160208091040260200160405190810160405280929190818152602001828054600181600116156101000203166002900480156117ad5780601f10611782576101008083540402835291602001916117ad565b820191906000526020600020905b81548152906001019060200180831161179057829003601f168201915b50505050509250818054600181600116156101000203166002900480601f0160208091040260200160405190810160405280929190818152602001828054600181600116156101000203166002900480156118495780601f1061181e57610100808354040283529160200191611849565b820191906000526020600020905b81548152906001019060200180831161182c57829003601f168201915b50505050509150808054600181600116156101000203166002900480601f0160208091040260200160405190810160405280929190818152602001828054600181600116156101000203166002900480156118e55780601f106118ba576101008083540402835291602001916118e5565b820191906000526020600020905b8154815290600101906020018083116118c857829003601f168201915b50505050509050935093509350509193909250565b80600260006101000a81548173ffffffffffffffffffffffffffffffffffffffff021916908373ffffffffffffffffffffffffffffffffffffffff16021790555050565b6009818154811061194b57fe5b90600052602060002001600091509050806000018054600181600116156101000203166002900480601f0160208091040260200160405190810160405280929190818152602001828054600181600116156101000203166002900480156119f35780601f106119c8576101008083540402835291602001916119f3565b820191906000526020600020905b8154815290600101906020018083116119d657829003601f168201915b5050505050905081565b60046020528060005260406000206000915054906101000a900473ffffffffffffffffffffffffffffffffffffffff1681565b6000600a54905090565b6000600160096040518060200160405280858152509080600181540180825580915050906001820390600052602060002001600090919290919091506000820151816000019080519060200190611a92929190611d12565b5050500390507f9b461456bf22c34b04b705590ce2218c33439e5062e403bd18054efe39a4a6fc81836040518083815260200180602001828103825283818151815260200191508051906020019080838360005b83811015611b01578082015181840152602081019050611ae6565b50505050905090810190601f168015611b2e5780820380516001836020036101000a031916815260200191505b50935050505060405180910390a15050565b611b48611653565b611bba576040517f08c379a00000000000000000000000000000000000000000000000000000000081526004018080602001828103825260208152602001807f4f776e61626c653a2063616c6c6572206973206e6f7420746865206f776e657281525060200191505060405180910390fd5b611bc381611bce565b50565b600033905090565b600073ffffffffffffffffffffffffffffffffffffffff168173ffffffffffffffffffffffffffffffffffffffff161415611c54576040517f08c379a0000000000000000000000000000000000000000000000000000000008152600401808060200182810382526026815260200180611db86026913960400191505060405180910390fd5b8073ffffffffffffffffffffffffffffffffffffffff166000809054906101000a900473ffffffffffffffffffffffffffffffffffffffff1673ffffffffffffffffffffffffffffffffffffffff167f8be0079c531659141344cd1fd0a4f28419497f9722a3daafe3b4186f6b6457e060405160405180910390a3806000806101000a81548173ffffffffffffffffffffffffffffffffffffffff021916908373ffffffffffffffffffffffffffffffffffffffff16021790555050565b828054600181600116156101000203166002900490600052602060002090601f016020900481019282601f10611d5357805160ff1916838001178555611d81565b82800160010185558215611d81579182015b82811115611d80578251825591602001919060010190611d65565b5b509050611d8e9190611d92565b5090565b611db491905b80821115611db0576000816000905550600101611d98565b5090565b9056fe4f776e61626c653a206e6577206f776e657220697320746865207a65726f2061646472657373a265627a7a723158204a68cbef7d0391c0f58265c1134480632fad12d29adc2fea87d63eedf5a5f67c64736f6c634300050c0032",
  "source": "pragma solidity >= 0.5.0 < 0.7.0;\n//pragma experimental ABIEncoderV2;\nimport \"@openzeppelin/contracts/ownership/Ownable.sol\";\n\n/// @title Immutable Post Contract\n/// @author Seb @Increaseo on the concept idea of Troy @Increaseo\n/// @notice For now, this contract create a post, category have a fee split.\n\ncontract ImmutablePosts is Ownable {\n    \n    // The Post\n    struct Post {\n        string title;\n        string description;\n        string category;\n    }\n\n    //Category \n    struct Category {\n        string name;\n    }\n    uint nbarticles = 0;\n\n    // Beneficiary Wallet address\n    address payable pluginbeneficiary = 0xa27F275bA433f981a6Ed1D94A3597Fb82952c6C6; // Account 2 in Ganache\n    \n    //Our Wallet\n    address payable walletaddress = 0x6711be7371C275F62Ee7F69e4Cb7C09ACEd852cC; // Account 3 in Ganache\n\n    //Post to Owner\n    mapping (uint => address) public postToOwner;\n    // Owner to Post\n    mapping (address => uint) ownerToPost;\n    //Post Count per Owner\n    mapping (address => uint) ownerPostCount;\n    \n    mapping (address => uint) balances;\n\n    // New Post created\n    event newPost(uint id, string title, string description, string category);\n    // New Category created\n    event newCategory(uint id, string categoryname);\n\n    // ARRAY METHOD for Posts and Categories\n    Post[] public posts;\n    Category[] public categories;\n\n    // Fee to post a Post approx 20USD\n    uint postFee = 87200000000000000 wei;\n\n    //Percentage share\n    uint commissionPercentage = 5;\n    \n    //Create a new post\n    function createPostandPay(string memory _title, string memory _description, string memory _category) public payable{\n          require(msg.value == postFee);\n          uint id = posts.push(Post(_title,_description,_category)) - 1;\n          postToOwner[id] = msg.sender;\n          ownerToPost[msg.sender] = id;\n          ownerPostCount[msg.sender]++;\n          emit newPost(id, _title, _description,_category);\n          nbarticles ++;\n          //Pay and Split the Fee\n          payAndSplitFee(postFee);\n        \n          \n    }\n    //Split fee for the post between Beneficiary and Us\n    function payAndSplitFee(uint _fullfee) public payable {\n          \n          \n          uint postFeeBeneficiary = _fullfee * commissionPercentage / 100;\n          pluginbeneficiary.transfer(postFeeBeneficiary);\n          uint postFeeUs = _fullfee - postFeeBeneficiary;\n          walletaddress.transfer(postFeeUs);\n    }\n\n    //Create new category\n    function createCategory (string memory _categoryname) public {\n         uint id = categories.push(Category(_categoryname)) - 1;\n         emit newCategory(id, _categoryname);\n    }\n    \n\n    // Experimental so removed\n    // function getPosts() public view returns (Post[] memory){\n    //   Post[] memory id = new Post[](nbarticles);\n    //   for (uint i = 0; i < nbarticles; i++) {\n    //       Post storage post = posts[i];\n    //       id[i] = post;\n    //   }\n    //   return id;\n    //  }\n     \n    //  function getPostbyAccount(address _myAddress) public view returns (uint) {\n    //     return ownerToPost[_myAddress];\n    //   }\n\n     //Get Post per Account\n     function getPostbyAccount(address _owner) external view returns(uint[] memory) {\n        uint[] memory result = new uint[](ownerPostCount[_owner]);\n        uint counter = 0;\n        for (uint i = 0; i < posts.length; i++) {\n          if (postToOwner[i] == _owner) {\n            result[counter] = i;\n            counter++;\n          }\n        }\n        return result;\n      }\n     \n      // Get All Numbers of Posts\n      function getNbArticles() public view returns (uint _nbarticle){\n         uint counter = 0;\n        for (uint i = 0; i < posts.length; i++) {\n            counter++;\n        }\n        return counter;\n      }\n\n     // Get Post by Id Array\n      function getPostbyId(uint pos) public view returns(string memory title, string memory description, string memory category){ \n        Post storage postss = posts[pos];\n        return (postss.title, postss.description, postss.category);\n     } \n\n     // For Admin of the contract to control the fee\n     function setFee(uint _fee) external onlyOwner {\n        _fee = _fee * 10**18;\n        postFee = _fee;\n     }\n      function getFee() public view returns (uint)   {\n        return postFee;\n     }\n     \n      // For Admin of the contract to control the percentage\n     function setPercentage(uint _percent) external onlyOwner {\n        _percent = _percent;\n        commissionPercentage = _percent;\n     }\n\n\n     // Setup Beneficiary wallet adddress\n    function setUpBeneficiary(address payable _newbeneficiary) public {\n       pluginbeneficiary = _newbeneficiary;\n    }\n     function getNewBenef() public view returns (address payable)   {\n        return  pluginbeneficiary;\n     } \n    // Update our Wallet address Admin only \n     function setUpOurWallerAddress(address payable _ourwallet) public onlyOwner {\n       walletaddress = _ourwallet;\n    }\n\n    //Balance \n  //  function getBalanceInEth(address addr) public view returns(uint) {\n  //       return ConvertLib.convert(getBalance(addr),2);\n  //   }\n\n    // function getBalance(address addr) public view returns(uint) {\n    //     return balances[addr];\n    // }\n\n\n}\n",
  "sourcePath": "/Users/sebdigital/Documents/SEBDIGITAL/blockchain/immutableposts/contracts/ImmutablePosts.sol",
  "compiler": {
    "name": "solc",
    "version": "0.5.12+commit.7709ece9.Emscripten.clang"
  },
  "schemaVersion": "3.0.20",
  "updatedAt": "2020-02-27T15:08:45.756Z",
  "networkType": "ethereum",
  "devdoc": {
    "author": "Seb @Increaseo on the concept idea of Troy @Increaseo",
    "methods": {
      "isOwner()": {
        "details": "Returns true if the caller is the current owner."
      },
      "owner()": {
        "details": "Returns the address of the current owner."
      },
      "renounceOwnership()": {
        "details": "Leaves the contract without owner. It will not be possible to call `onlyOwner` functions anymore. Can only be called by the current owner.     * NOTE: Renouncing ownership will leave the contract without an owner, thereby removing any functionality that is only available to the owner."
      },
      "transferOwnership(address)": {
        "details": "Transfers ownership of the contract to a new account (`newOwner`). Can only be called by the current owner."
      }
    },
    "title": "Immutable Post Contract"
  },
  "userdoc": {
    "methods": {},
    "notice": "For now, this contract create a post, category have a fee split."
  }
}