{
  "contractName": "ImmutablePosts",
  "abi": [
    {
      "anonymous": false,
      "inputs": [
        {
          "indexed": true,
          "internalType": "address",
          "name": "previousOwner",
          "type": "address"
        },
        {
          "indexed": true,
          "internalType": "address",
          "name": "newOwner",
          "type": "address"
        }
      ],
      "name": "OwnershipTransferred",
      "type": "event"
    },
    {
      "anonymous": false,
      "inputs": [
        {
          "indexed": false,
          "internalType": "uint256",
          "name": "id",
          "type": "uint256"
        },
        {
          "indexed": false,
          "internalType": "string",
          "name": "categoryname",
          "type": "string"
        }
      ],
      "name": "newCategory",
      "type": "event"
    },
    {
      "anonymous": false,
      "inputs": [
        {
          "indexed": false,
          "internalType": "uint256",
          "name": "id",
          "type": "uint256"
        },
        {
          "indexed": false,
          "internalType": "string",
          "name": "title",
          "type": "string"
        },
        {
          "indexed": false,
          "internalType": "string",
          "name": "description",
          "type": "string"
        },
        {
          "indexed": false,
          "internalType": "string",
          "name": "category",
          "type": "string"
        }
      ],
      "name": "newPost",
      "type": "event"
    },
    {
      "constant": true,
      "inputs": [
        {
          "internalType": "uint256",
          "name": "",
          "type": "uint256"
        }
      ],
      "name": "categories",
      "outputs": [
        {
          "internalType": "string",
          "name": "name",
          "type": "string"
        }
      ],
      "payable": false,
      "stateMutability": "view",
      "type": "function"
    },
    {
      "constant": true,
      "inputs": [],
      "name": "isOwner",
      "outputs": [
        {
          "internalType": "bool",
          "name": "",
          "type": "bool"
        }
      ],
      "payable": false,
      "stateMutability": "view",
      "type": "function"
    },
    {
      "constant": true,
      "inputs": [],
      "name": "owner",
      "outputs": [
        {
          "internalType": "address",
          "name": "",
          "type": "address"
        }
      ],
      "payable": false,
      "stateMutability": "view",
      "type": "function"
    },
    {
      "constant": true,
      "inputs": [
        {
          "internalType": "uint256",
          "name": "",
          "type": "uint256"
        }
      ],
      "name": "postToOwner",
      "outputs": [
        {
          "internalType": "address",
          "name": "",
          "type": "address"
        }
      ],
      "payable": false,
      "stateMutability": "view",
      "type": "function"
    },
    {
      "constant": true,
      "inputs": [
        {
          "internalType": "uint256",
          "name": "",
          "type": "uint256"
        }
      ],
      "name": "posts",
      "outputs": [
        {
          "internalType": "string",
          "name": "title",
          "type": "string"
        },
        {
          "internalType": "string",
          "name": "description",
          "type": "string"
        },
        {
          "internalType": "string",
          "name": "category",
          "type": "string"
        }
      ],
      "payable": false,
      "stateMutability": "view",
      "type": "function"
    },
    {
      "constant": false,
      "inputs": [],
      "name": "renounceOwnership",
      "outputs": [],
      "payable": false,
      "stateMutability": "nonpayable",
      "type": "function"
    },
    {
      "constant": false,
      "inputs": [
        {
          "internalType": "address",
          "name": "newOwner",
          "type": "address"
        }
      ],
      "name": "transferOwnership",
      "outputs": [],
      "payable": false,
      "stateMutability": "nonpayable",
      "type": "function"
    },
    {
      "constant": false,
      "inputs": [
        {
          "internalType": "string",
          "name": "_title",
          "type": "string"
        },
        {
          "internalType": "string",
          "name": "_description",
          "type": "string"
        },
        {
          "internalType": "string",
          "name": "_category",
          "type": "string"
        },
        {
          "internalType": "address payable",
          "name": "_pluginbeneficiary",
          "type": "address"
        }
      ],
      "name": "createPostandPay",
      "outputs": [],
      "payable": true,
      "stateMutability": "payable",
      "type": "function"
    },
    {
      "constant": false,
      "inputs": [
        {
          "internalType": "uint256",
          "name": "_fullfee",
          "type": "uint256"
        },
        {
          "internalType": "address payable",
          "name": "_pluginbeneficiary",
          "type": "address"
        }
      ],
      "name": "payAndSplitFee",
      "outputs": [],
      "payable": true,
      "stateMutability": "payable",
      "type": "function"
    },
    {
      "constant": false,
      "inputs": [
        {
          "internalType": "string",
          "name": "_categoryname",
          "type": "string"
        }
      ],
      "name": "createCategory",
      "outputs": [],
      "payable": false,
      "stateMutability": "nonpayable",
      "type": "function"
    },
    {
      "constant": true,
      "inputs": [
        {
          "internalType": "address",
          "name": "_owner",
          "type": "address"
        }
      ],
      "name": "getPostbyAccount",
      "outputs": [
        {
          "internalType": "uint256[]",
          "name": "",
          "type": "uint256[]"
        }
      ],
      "payable": false,
      "stateMutability": "view",
      "type": "function"
    },
    {
      "constant": true,
      "inputs": [],
      "name": "getNbArticles",
      "outputs": [
        {
          "internalType": "uint256",
          "name": "_nbarticle",
          "type": "uint256"
        }
      ],
      "payable": false,
      "stateMutability": "view",
      "type": "function"
    },
    {
      "constant": true,
      "inputs": [
        {
          "internalType": "uint256",
          "name": "pos",
          "type": "uint256"
        }
      ],
      "name": "getPostbyId",
      "outputs": [
        {
          "internalType": "string",
          "name": "title",
          "type": "string"
        },
        {
          "internalType": "string",
          "name": "description",
          "type": "string"
        },
        {
          "internalType": "string",
          "name": "category",
          "type": "string"
        }
      ],
      "payable": false,
      "stateMutability": "view",
      "type": "function"
    },
    {
      "constant": false,
      "inputs": [
        {
          "internalType": "uint256",
          "name": "_fee",
          "type": "uint256"
        }
      ],
      "name": "setFee",
      "outputs": [],
      "payable": false,
      "stateMutability": "nonpayable",
      "type": "function"
    },
    {
      "constant": true,
      "inputs": [],
      "name": "getFee",
      "outputs": [
        {
          "internalType": "uint256",
          "name": "",
          "type": "uint256"
        }
      ],
      "payable": false,
      "stateMutability": "view",
      "type": "function"
    },
    {
      "constant": false,
      "inputs": [
        {
          "internalType": "uint256",
          "name": "_percent",
          "type": "uint256"
        }
      ],
      "name": "setPercentage",
      "outputs": [],
      "payable": false,
      "stateMutability": "nonpayable",
      "type": "function"
    },
    {
      "constant": false,
      "inputs": [
        {
          "internalType": "address payable",
          "name": "_ourwallet",
          "type": "address"
        }
      ],
      "name": "setUpOurWallerAddress",
      "outputs": [],
      "payable": false,
      "stateMutability": "nonpayable",
      "type": "function"
    }
  ],
  "bytecode": "0x60806040526000600155736711be7371c275f62ee7f69e4cb7c09aced852cc600260006101000a81548173ffffffffffffffffffffffffffffffffffffffff021916908373ffffffffffffffffffffffffffffffffffffffff160217905550670135cbf0206a00006009556005600a55600061007f61012260201b60201c565b9050806000806101000a81548173ffffffffffffffffffffffffffffffffffffffff021916908373ffffffffffffffffffffffffffffffffffffffff1602179055508073ffffffffffffffffffffffffffffffffffffffff16600073ffffffffffffffffffffffffffffffffffffffff167f8be0079c531659141344cd1fd0a4f28419497f9722a3daafe3b4186f6b6457e060405160405180910390a35061012a565b600033905090565b611d07806101396000396000f3fe6080604052600436106100fe5760003560e01c80638da5cb5b11610095578063c6cdbe5e11610064578063c6cdbe5e146108a7578063cbe8ad211461095b578063ced72f87146109d6578063dc29868214610a01578063f2fde38b14610ac9576100fe565b80638da5cb5b1461066a5780638f32d59b146106c1578063945979dc146106f05780639d677b0a1461071b576100fe565b80635da4a1d3116100d15780635da4a1d31461058f57806365641ec3146105ca57806369fe0e2d14610618578063715018a614610653576100fe565b80630b1e7f83146101035780630b89be071461028f57806310997876146104985780632b071d971461053e575b600080fd5b34801561010f57600080fd5b5061013c6004803603602081101561012657600080fd5b8101908080359060200190929190505050610b1a565b60405180806020018060200180602001848103845287818151815260200191508051906020019080838360005b83811015610184578082015181840152602081019050610169565b50505050905090810190601f1680156101b15780820380516001836020036101000a031916815260200191505b50848103835286818151815260200191508051906020019080838360005b838110156101ea5780820151818401526020810190506101cf565b50505050905090810190601f1680156102175780820380516001836020036101000a031916815260200191505b50848103825285818151815260200191508051906020019080838360005b83811015610250578082015181840152602081019050610235565b50505050905090810190601f16801561027d5780820380516001836020036101000a031916815260200191505b50965050505050505060405180910390f35b610496600480360360808110156102a557600080fd5b81019080803590602001906401000000008111156102c257600080fd5b8201836020820111156102d457600080fd5b803590602001918460018302840111640100000000831117156102f657600080fd5b91908080601f016020809104026020016040519081016040528093929190818152602001838380828437600081840152601f19601f8201169050808301925050505050505091929192908035906020019064010000000081111561035957600080fd5b82018360208201111561036b57600080fd5b8035906020019184600183028401116401000000008311171561038d57600080fd5b91908080601f016020809104026020016040519081016040528093929190818152602001838380828437600081840152601f19601f820116905080830192505050505050509192919290803590602001906401000000008111156103f057600080fd5b82018360208201111561040257600080fd5b8035906020019184600183028401116401000000008311171561042457600080fd5b91908080601f016020809104026020016040519081016040528093929190818152602001838380828437600081840152601f19601f820116905080830192505050505050509192919290803573ffffffffffffffffffffffffffffffffffffffff169060200190929190505050610d19565b005b3480156104a457600080fd5b506104e7600480360360208110156104bb57600080fd5b81019080803573ffffffffffffffffffffffffffffffffffffffff169060200190929190505050611057565b6040518080602001828103825283818151815260200191508051906020019060200280838360005b8381101561052a57808201518184015260208101905061050f565b505050509050019250505060405180910390f35b34801561054a57600080fd5b5061058d6004803603602081101561056157600080fd5b81019080803573ffffffffffffffffffffffffffffffffffffffff169060200190929190505050611184565b005b34801561059b57600080fd5b506105c8600480360360208110156105b257600080fd5b8101908080359060200190929190505050611242565b005b610616600480360360408110156105e057600080fd5b8101908080359060200190929190803573ffffffffffffffffffffffffffffffffffffffff1690602001909291905050506112c9565b005b34801561062457600080fd5b506106516004803603602081101561063b57600080fd5b8101908080359060200190929190505050611399565b005b34801561065f57600080fd5b5061066861142a565b005b34801561067657600080fd5b5061067f611563565b604051808273ffffffffffffffffffffffffffffffffffffffff1673ffffffffffffffffffffffffffffffffffffffff16815260200191505060405180910390f35b3480156106cd57600080fd5b506106d661158c565b604051808215151515815260200191505060405180910390f35b3480156106fc57600080fd5b506107056115ea565b6040518082815260200191505060405180910390f35b34801561072757600080fd5b506107546004803603602081101561073e57600080fd5b8101908080359060200190929190505050611621565b60405180806020018060200180602001848103845287818151815260200191508051906020019080838360005b8381101561079c578082015181840152602081019050610781565b50505050905090810190601f1680156107c95780820380516001836020036101000a031916815260200191505b50848103835286818151815260200191508051906020019080838360005b838110156108025780820151818401526020810190506107e7565b50505050905090810190601f16801561082f5780820380516001836020036101000a031916815260200191505b50848103825285818151815260200191508051906020019080838360005b8381101561086857808201518184015260208101905061084d565b50505050905090810190601f1680156108955780820380516001836020036101000a031916815260200191505b50965050505050505060405180910390f35b3480156108b357600080fd5b506108e0600480360360208110156108ca57600080fd5b8101908080359060200190929190505050611833565b6040518080602001828103825283818151815260200191508051906020019080838360005b83811015610920578082015181840152602081019050610905565b50505050905090810190601f16801561094d5780820380516001836020036101000a031916815260200191505b509250505060405180910390f35b34801561096757600080fd5b506109946004803603602081101561097e57600080fd5b81019080803590602001909291905050506118f2565b604051808273ffffffffffffffffffffffffffffffffffffffff1673ffffffffffffffffffffffffffffffffffffffff16815260200191505060405180910390f35b3480156109e257600080fd5b506109eb611925565b6040518082815260200191505060405180910390f35b348015610a0d57600080fd5b50610ac760048036036020811015610a2457600080fd5b8101908080359060200190640100000000811115610a4157600080fd5b820183602082011115610a5357600080fd5b80359060200191846001830284011164010000000083111715610a7557600080fd5b91908080601f016020809104026020016040519081016040528093929190818152602001838380828437600081840152601f19601f82011690508083019250505050505050919291929050505061192f565b005b348015610ad557600080fd5b50610b1860048036036020811015610aec57600080fd5b81019080803573ffffffffffffffffffffffffffffffffffffffff169060200190929190505050611a35565b005b60078181548110610b2757fe5b9060005260206000209060030201600091509050806000018054600181600116156101000203166002900480601f016020809104026020016040519081016040528092919081815260200182805460018160011615610100020316600290048015610bd35780601f10610ba857610100808354040283529160200191610bd3565b820191906000526020600020905b815481529060010190602001808311610bb657829003601f168201915b505050505090806001018054600181600116156101000203166002900480601f016020809104026020016040519081016040528092919081815260200182805460018160011615610100020316600290048015610c715780601f10610c4657610100808354040283529160200191610c71565b820191906000526020600020905b815481529060010190602001808311610c5457829003601f168201915b505050505090806002018054600181600116156101000203166002900480601f016020809104026020016040519081016040528092919081815260200182805460018160011615610100020316600290048015610d0f5780601f10610ce457610100808354040283529160200191610d0f565b820191906000526020600020905b815481529060010190602001808311610cf257829003601f168201915b5050505050905083565b6009543414610d2757600080fd5b600060016007604051806060016040528088815260200187815260200186815250908060018154018082558091505090600182039060005260206000209060030201600090919290919091506000820151816000019080519060200190610d8f929190611c07565b506020820151816001019080519060200190610dac929190611c07565b506040820151816002019080519060200190610dc9929190611c07565b505050039050336003600083815260200190815260200160002060006101000a81548173ffffffffffffffffffffffffffffffffffffffff021916908373ffffffffffffffffffffffffffffffffffffffff16021790555080600460003373ffffffffffffffffffffffffffffffffffffffff1673ffffffffffffffffffffffffffffffffffffffff16815260200190815260200160002081905550600560003373ffffffffffffffffffffffffffffffffffffffff1673ffffffffffffffffffffffffffffffffffffffff168152602001908152602001600020600081548092919060010191905055507fe11e7a2b84ce91d77d6e22703b19b4218d69af20d7a8418ba6d728b323dd1b1a8186868660405180858152602001806020018060200180602001848103845287818151815260200191508051906020019080838360005b83811015610f27578082015181840152602081019050610f0c565b50505050905090810190601f168015610f545780820380516001836020036101000a031916815260200191505b50848103835286818151815260200191508051906020019080838360005b83811015610f8d578082015181840152602081019050610f72565b50505050905090810190601f168015610fba5780820380516001836020036101000a031916815260200191505b50848103825285818151815260200191508051906020019080838360005b83811015610ff3578082015181840152602081019050610fd8565b50505050905090810190601f1680156110205780820380516001836020036101000a031916815260200191505b5097505050505050505060405180910390a1600160008154809291906001019190505550611050600954836112c9565b5050505050565b606080600560008473ffffffffffffffffffffffffffffffffffffffff1673ffffffffffffffffffffffffffffffffffffffff168152602001908152602001600020546040519080825280602002602001820160405280156110c85781602001602082028038833980820191505090505b509050600080905060008090505b600780549050811015611179578473ffffffffffffffffffffffffffffffffffffffff166003600083815260200190815260200160002060009054906101000a900473ffffffffffffffffffffffffffffffffffffffff1673ffffffffffffffffffffffffffffffffffffffff16141561116c578083838151811061115757fe5b60200260200101818152505081806001019250505b80806001019150506110d6565b508192505050919050565b61118c61158c565b6111fe576040517f08c379a00000000000000000000000000000000000000000000000000000000081526004018080602001828103825260208152602001807f4f776e61626c653a2063616c6c6572206973206e6f7420746865206f776e657281525060200191505060405180910390fd5b80600260006101000a81548173ffffffffffffffffffffffffffffffffffffffff021916908373ffffffffffffffffffffffffffffffffffffffff16021790555050565b61124a61158c565b6112bc576040517f08c379a00000000000000000000000000000000000000000000000000000000081526004018080602001828103825260208152602001807f4f776e61626c653a2063616c6c6572206973206e6f7420746865206f776e657281525060200191505060405180910390fd5b80905080600a8190555050565b60006064600a548402816112d957fe5b0490508173ffffffffffffffffffffffffffffffffffffffff166108fc829081150290604051600060405180830381858888f19350505050158015611322573d6000803e3d6000fd5b5060008184039050600260009054906101000a900473ffffffffffffffffffffffffffffffffffffffff1673ffffffffffffffffffffffffffffffffffffffff166108fc829081150290604051600060405180830381858888f19350505050158015611392573d6000803e3d6000fd5b5050505050565b6113a161158c565b611413576040517f08c379a00000000000000000000000000000000000000000000000000000000081526004018080602001828103825260208152602001807f4f776e61626c653a2063616c6c6572206973206e6f7420746865206f776e657281525060200191505060405180910390fd5b670de0b6b3a7640000810290508060098190555050565b61143261158c565b6114a4576040517f08c379a00000000000000000000000000000000000000000000000000000000081526004018080602001828103825260208152602001807f4f776e61626c653a2063616c6c6572206973206e6f7420746865206f776e657281525060200191505060405180910390fd5b600073ffffffffffffffffffffffffffffffffffffffff166000809054906101000a900473ffffffffffffffffffffffffffffffffffffffff1673ffffffffffffffffffffffffffffffffffffffff167f8be0079c531659141344cd1fd0a4f28419497f9722a3daafe3b4186f6b6457e060405160405180910390a360008060006101000a81548173ffffffffffffffffffffffffffffffffffffffff021916908373ffffffffffffffffffffffffffffffffffffffff160217905550565b60008060009054906101000a900473ffffffffffffffffffffffffffffffffffffffff16905090565b60008060009054906101000a900473ffffffffffffffffffffffffffffffffffffffff1673ffffffffffffffffffffffffffffffffffffffff166115ce611abb565b73ffffffffffffffffffffffffffffffffffffffff1614905090565b6000806000905060008090505b60078054905081101561161957818060010192505080806001019150506115f7565b508091505090565b606080606060006007858154811061163557fe5b90600052602060002090600302019050806000018160010182600201828054600181600116156101000203166002900480601f0160208091040260200160405190810160405280929190818152602001828054600181600116156101000203166002900480156116e65780601f106116bb576101008083540402835291602001916116e6565b820191906000526020600020905b8154815290600101906020018083116116c957829003601f168201915b50505050509250818054600181600116156101000203166002900480601f0160208091040260200160405190810160405280929190818152602001828054600181600116156101000203166002900480156117825780601f1061175757610100808354040283529160200191611782565b820191906000526020600020905b81548152906001019060200180831161176557829003601f168201915b50505050509150808054600181600116156101000203166002900480601f01602080910402602001604051908101604052809291908181526020018280546001816001161561010002031660029004801561181e5780601f106117f35761010080835404028352916020019161181e565b820191906000526020600020905b81548152906001019060200180831161180157829003601f168201915b50505050509050935093509350509193909250565b6008818154811061184057fe5b90600052602060002001600091509050806000018054600181600116156101000203166002900480601f0160208091040260200160405190810160405280929190818152602001828054600181600116156101000203166002900480156118e85780601f106118bd576101008083540402835291602001916118e8565b820191906000526020600020905b8154815290600101906020018083116118cb57829003601f168201915b5050505050905081565b60036020528060005260406000206000915054906101000a900473ffffffffffffffffffffffffffffffffffffffff1681565b6000600954905090565b6000600160086040518060200160405280858152509080600181540180825580915050906001820390600052602060002001600090919290919091506000820151816000019080519060200190611987929190611c07565b5050500390507f9b461456bf22c34b04b705590ce2218c33439e5062e403bd18054efe39a4a6fc81836040518083815260200180602001828103825283818151815260200191508051906020019080838360005b838110156119f65780820151818401526020810190506119db565b50505050905090810190601f168015611a235780820380516001836020036101000a031916815260200191505b50935050505060405180910390a15050565b611a3d61158c565b611aaf576040517f08c379a00000000000000000000000000000000000000000000000000000000081526004018080602001828103825260208152602001807f4f776e61626c653a2063616c6c6572206973206e6f7420746865206f776e657281525060200191505060405180910390fd5b611ab881611ac3565b50565b600033905090565b600073ffffffffffffffffffffffffffffffffffffffff168173ffffffffffffffffffffffffffffffffffffffff161415611b49576040517f08c379a0000000000000000000000000000000000000000000000000000000008152600401808060200182810382526026815260200180611cad6026913960400191505060405180910390fd5b8073ffffffffffffffffffffffffffffffffffffffff166000809054906101000a900473ffffffffffffffffffffffffffffffffffffffff1673ffffffffffffffffffffffffffffffffffffffff167f8be0079c531659141344cd1fd0a4f28419497f9722a3daafe3b4186f6b6457e060405160405180910390a3806000806101000a81548173ffffffffffffffffffffffffffffffffffffffff021916908373ffffffffffffffffffffffffffffffffffffffff16021790555050565b828054600181600116156101000203166002900490600052602060002090601f016020900481019282601f10611c4857805160ff1916838001178555611c76565b82800160010185558215611c76579182015b82811115611c75578251825591602001919060010190611c5a565b5b509050611c839190611c87565b5090565b611ca991905b80821115611ca5576000816000905550600101611c8d565b5090565b9056fe4f776e61626c653a206e6577206f776e657220697320746865207a65726f2061646472657373a265627a7a7231582021dc02d4d2c9a6ce7e6372522a0376a5458e49cd5c025c298174ffd0b01f66cd64736f6c634300050c0032",
  "source": "pragma solidity >= 0.5.0 < 0.7.0;\n//pragma experimental ABIEncoderV2;\nimport \"@openzeppelin/contracts/ownership/Ownable.sol\";\n\n/// @title Immutable Post Contract\n/// @author Seb @Increaseo on the concept idea of Troy @Increaseo\n/// @notice For now, this contract create a post, category have a fee split.\n\ncontract ImmutablePosts is Ownable {\n    \n    // The Post\n    struct Post {\n        string title;\n        string description;\n        string category;\n    }\n\n    //Category \n    struct Category {\n        string name;\n    }\n    uint nbarticles = 0;\n\n    // Beneficiary Wallet address this is setup in the plugin\n   \n    //Our Wallet\n    address payable walletaddress = 0x6711be7371C275F62Ee7F69e4Cb7C09ACEd852cC; // Account 3 in Ganache\n\n    //Post to Owner\n    mapping (uint => address) public postToOwner;\n    // Owner to Post\n    mapping (address => uint) ownerToPost;\n    //Post Count per Owner\n    mapping (address => uint) ownerPostCount;\n    \n    mapping (address => uint) balances;\n\n    // New Post created\n    event newPost(uint id, string title, string description, string category);\n    // New Category created\n    event newCategory(uint id, string categoryname);\n\n    // ARRAY METHOD for Posts and Categories\n    Post[] public posts;\n    Category[] public categories;\n\n    // Fee to post a Post approx 20USD\n    uint postFee = 87200000000000000 wei;\n\n    //Percentage share\n    uint commissionPercentage = 5;\n    \n    //Create a new post\n    function createPostandPay(string memory _title, string memory _description, string memory _category, address payable _pluginbeneficiary) public payable{\n          require(msg.value == postFee);\n          uint id = posts.push(Post(_title,_description,_category)) - 1;\n          postToOwner[id] = msg.sender;\n          ownerToPost[msg.sender] = id;\n          ownerPostCount[msg.sender]++;\n          emit newPost(id, _title, _description,_category);\n          nbarticles ++;\n          //Pay and Split the Fee\n          payAndSplitFee(postFee, _pluginbeneficiary);\n        \n          \n    }\n    //Split fee for the post between Beneficiary and Us\n    function payAndSplitFee(uint _fullfee, address payable _pluginbeneficiary) public payable {\n          \n\n          uint postFeeBeneficiary = _fullfee * commissionPercentage / 100;\n          _pluginbeneficiary.transfer(postFeeBeneficiary);\n          uint postFeeUs = _fullfee - postFeeBeneficiary;\n          walletaddress.transfer(postFeeUs);\n    }\n\n    //Create new category\n    function createCategory (string memory _categoryname) public {\n         uint id = categories.push(Category(_categoryname)) - 1;\n         emit newCategory(id, _categoryname);\n    }\n    \n\n    // Experimental so removed\n    // function getPosts() public view returns (Post[] memory){\n    //   Post[] memory id = new Post[](nbarticles);\n    //   for (uint i = 0; i < nbarticles; i++) {\n    //       Post storage post = posts[i];\n    //       id[i] = post;\n    //   }\n    //   return id;\n    //  }\n     \n    //  function getPostbyAccount(address _myAddress) public view returns (uint) {\n    //     return ownerToPost[_myAddress];\n    //   }\n\n     //Get Post per Account\n     function getPostbyAccount(address _owner) external view returns(uint[] memory) {\n        uint[] memory result = new uint[](ownerPostCount[_owner]);\n        uint counter = 0;\n        for (uint i = 0; i < posts.length; i++) {\n          if (postToOwner[i] == _owner) {\n            result[counter] = i;\n            counter++;\n          }\n        }\n        return result;\n      }\n     \n      // Get All Numbers of Posts\n      function getNbArticles() public view returns (uint _nbarticle){\n         uint counter = 0;\n        for (uint i = 0; i < posts.length; i++) {\n            counter++;\n        }\n        return counter;\n      }\n\n     // Get Post by Id Array\n      function getPostbyId(uint pos) public view returns(string memory title, string memory description, string memory category){ \n        Post storage postss = posts[pos];\n        return (postss.title, postss.description, postss.category);\n     } \n\n     // For Admin of the contract to control the fee\n     function setFee(uint _fee) external onlyOwner {\n        _fee = _fee * 10**18;\n        postFee = _fee;\n     }\n      function getFee() public view returns (uint)   {\n        return postFee;\n     }\n     \n      // For Admin of the contract to control the percentage\n     function setPercentage(uint _percent) external onlyOwner {\n        _percent = _percent;\n        commissionPercentage = _percent;\n     }\n\n\n     // Setup Beneficiary wallet adddress\n   //  function setUpBeneficiary(address payable _newbeneficiary) public {\n   //     pluginbeneficiary = _newbeneficiary;\n   //  }\n   //   function getNewBenef() public view returns (address payable)   {\n   //      return  pluginbeneficiary;\n   //   } \n    // Update our Wallet address Admin only \n     function setUpOurWallerAddress(address payable _ourwallet) public onlyOwner {\n       walletaddress = _ourwallet;\n    }\n\n    //Balance \n  //  function getBalanceInEth(address addr) public view returns(uint) {\n  //       return ConvertLib.convert(getBalance(addr),2);\n  //   }\n\n    // function getBalance(address addr) public view returns(uint) {\n    //     return balances[addr];\n    // }\n\n\n}\n",
  "sourcePath": "/Users/sebdigital/Documents/SEBDIGITAL/blockchain/immutableposts/contracts/ImmutablePosts.sol",
  "compiler": {
    "name": "solc",
    "version": "0.5.12+commit.7709ece9.Emscripten.clang"
  },
  "schemaVersion": "3.0.20",
  "updatedAt": "2020-03-03T08:36:10.130Z",
  "networkType": "ethereum",
  "devdoc": {
    "author": "Seb @Increaseo on the concept idea of Troy @Increaseo",
    "methods": {
      "isOwner()": {
        "details": "Returns true if the caller is the current owner."
      },
      "owner()": {
        "details": "Returns the address of the current owner."
      },
      "renounceOwnership()": {
        "details": "Leaves the contract without owner. It will not be possible to call `onlyOwner` functions anymore. Can only be called by the current owner.     * NOTE: Renouncing ownership will leave the contract without an owner, thereby removing any functionality that is only available to the owner."
      },
      "transferOwnership(address)": {
        "details": "Transfers ownership of the contract to a new account (`newOwner`). Can only be called by the current owner."
      }
    },
    "title": "Immutable Post Contract"
  },
  "userdoc": {
    "methods": {},
    "notice": "For now, this contract create a post, category have a fee split."
  }
}